{
  "_format": "hh-sol-artifact-1",
  "contractName": "TestContractInteractor",
  "sourceName": "contracts/Test/TestContractInteractor.sol",
  "abi": [
    {
      "inputs": [
        {
          "internalType": "address",
          "name": "_poppyPengiuinAddress",
          "type": "address"
        }
      ],
      "stateMutability": "nonpayable",
      "type": "constructor"
    },
    {
      "inputs": [],
      "name": "poppyPenguinContract",
      "outputs": [
        {
          "internalType": "contract IPoppyPenguinWithGeneChanger",
          "name": "",
          "type": "address"
        }
      ],
      "stateMutability": "view",
      "type": "function"
    },
    {
      "inputs": [
        {
          "internalType": "uint256",
          "name": "tokenId",
          "type": "uint256"
        },
        {
          "internalType": "uint256",
          "name": "genePosition",
          "type": "uint256"
        }
      ],
      "name": "triggerGeneChange",
      "outputs": [],
      "stateMutability": "payable",
      "type": "function"
    },
    {
      "inputs": [
        {
          "internalType": "uint256",
          "name": "tokenId",
          "type": "uint256"
        }
      ],
      "name": "triggerRandomize",
      "outputs": [],
      "stateMutability": "payable",
      "type": "function"
    }
  ],
  "bytecode": "0x608060405234801561001057600080fd5b506040516102f53803806102f58339818101604052602081101561003357600080fd5b8101908080519060200190929190505050806000806101000a81548173ffffffffffffffffffffffffffffffffffffffff021916908373ffffffffffffffffffffffffffffffffffffffff16021790555050610261806100946000396000f3fe6080604052600436106100345760003560e01c80636f9afd2714610039578063724ad4d31461007a578063745fb3b9146100b2575b600080fd5b34801561004557600080fd5b5061004e6100e0565b604051808273ffffffffffffffffffffffffffffffffffffffff16815260200191505060405180910390f35b6100b06004803603604081101561009057600080fd5b810190808035906020019092919080359060200190929190505050610104565b005b6100de600480360360208110156100c857600080fd5b810190808035906020019092919050505061019c565b005b60008054906101000a900473ffffffffffffffffffffffffffffffffffffffff1681565b60008054906101000a900473ffffffffffffffffffffffffffffffffffffffff1673ffffffffffffffffffffffffffffffffffffffff166356a5c9263484846040518463ffffffff1660e01b815260040180838152602001828152602001925050506000604051808303818588803b15801561017f57600080fd5b505af1158015610193573d6000803e3d6000fd5b50505050505050565b60008054906101000a900473ffffffffffffffffffffffffffffffffffffffff1673ffffffffffffffffffffffffffffffffffffffff16639e7bb46734836040518363ffffffff1660e01b8152600401808281526020019150506000604051808303818588803b15801561020f57600080fd5b505af1158015610223573d6000803e3d6000fd5b50505050505056fea26469706673582212200926f6bac19448a29a1f9c18ed9095c9e39aec352e23bcd4e4566abc5f78b64b64736f6c63430007030033",
  "linkReferences": {},
  "deployedLinkReferences": {}
}