{
  "_format": "hh-sol-artifact-1",
  "contractName": "PoppyPenguinWithGeneChanger",
  "sourceName": "contracts/PoppyPenguinWithGeneChanger.sol",
  "abi": [
    {
      "inputs": [
        {
          "internalType": "string",
          "name": "name",
          "type": "string"
        },
        {
          "internalType": "string",
          "name": "symbol",
          "type": "string"
        },
        {
          "internalType": "string",
          "name": "baseURI",
          "type": "string"
        },
        {
          "internalType": "address payable",
          "name": "_daoAddress",
          "type": "address"
        },
        {
          "internalType": "uint256",
          "name": "premintedTokensCount",
          "type": "uint256"
        },
        {
          "internalType": "uint256",
          "name": "_baseGenomeChangePrice",
          "type": "uint256"
        },
        {
          "internalType": "uint256",
          "name": "_poppyPenguinPrice",
          "type": "uint256"
        },
        {
          "internalType": "uint256",
          "name": "totalSupply",
          "type": "uint256"
        },
        {
          "internalType": "uint256",
          "name": "_randomizeGenomePrice",
          "type": "uint256"
        },
        {
          "internalType": "uint256",
          "name": "_bulkBuyLimit",
          "type": "uint256"
        },
        {
          "internalType": "string",
          "name": "_arweaveAssetsJSON",
          "type": "string"
        }
      ],
      "stateMutability": "nonpayable",
      "type": "constructor"
    },
    {
      "anonymous": false,
      "inputs": [
        {
          "indexed": true,
          "internalType": "address",
          "name": "owner",
          "type": "address"
        },
        {
          "indexed": true,
          "internalType": "address",
          "name": "approved",
          "type": "address"
        },
        {
          "indexed": true,
          "internalType": "uint256",
          "name": "tokenId",
          "type": "uint256"
        }
      ],
      "name": "Approval",
      "type": "event"
    },
    {
      "anonymous": false,
      "inputs": [
        {
          "indexed": true,
          "internalType": "address",
          "name": "owner",
          "type": "address"
        },
        {
          "indexed": true,
          "internalType": "address",
          "name": "operator",
          "type": "address"
        },
        {
          "indexed": false,
          "internalType": "bool",
          "name": "approved",
          "type": "bool"
        }
      ],
      "name": "ApprovalForAll",
      "type": "event"
    },
    {
      "anonymous": false,
      "inputs": [
        {
          "indexed": false,
          "internalType": "uint256",
          "name": "newGenomeChange",
          "type": "uint256"
        }
      ],
      "name": "BaseGenomeChangePriceChanged",
      "type": "event"
    },
    {
      "anonymous": false,
      "inputs": [
        {
          "indexed": false,
          "internalType": "string",
          "name": "baseURI",
          "type": "string"
        }
      ],
      "name": "BaseURIChanged",
      "type": "event"
    },
    {
      "anonymous": false,
      "inputs": [
        {
          "indexed": false,
          "internalType": "uint256",
          "name": "newBulkBuyLimit",
          "type": "uint256"
        }
      ],
      "name": "BulkBuyLimitChanged",
      "type": "event"
    },
    {
      "anonymous": false,
      "inputs": [
        {
          "indexed": false,
          "internalType": "uint256",
          "name": "newMaxSupply",
          "type": "uint256"
        }
      ],
      "name": "MaxSupplyChanged",
      "type": "event"
    },
    {
      "anonymous": false,
      "inputs": [
        {
          "indexed": false,
          "internalType": "address",
          "name": "account",
          "type": "address"
        }
      ],
      "name": "Paused",
      "type": "event"
    },
    {
      "anonymous": false,
      "inputs": [
        {
          "indexed": false,
          "internalType": "uint256",
          "name": "newPoppyPenguinPrice",
          "type": "uint256"
        }
      ],
      "name": "PoppyPenguinPriceChanged",
      "type": "event"
    },
    {
      "anonymous": false,
      "inputs": [
        {
          "indexed": false,
          "internalType": "uint256",
          "name": "newRandomizeGenomePriceChange",
          "type": "uint256"
        }
      ],
      "name": "RandomizeGenomePriceChanged",
      "type": "event"
    },
    {
      "anonymous": false,
      "inputs": [
        {
          "indexed": true,
          "internalType": "bytes32",
          "name": "role",
          "type": "bytes32"
        },
        {
          "indexed": true,
          "internalType": "bytes32",
          "name": "previousAdminRole",
          "type": "bytes32"
        },
        {
          "indexed": true,
          "internalType": "bytes32",
          "name": "newAdminRole",
          "type": "bytes32"
        }
      ],
      "name": "RoleAdminChanged",
      "type": "event"
    },
    {
      "anonymous": false,
      "inputs": [
        {
          "indexed": true,
          "internalType": "bytes32",
          "name": "role",
          "type": "bytes32"
        },
        {
          "indexed": true,
          "internalType": "address",
          "name": "account",
          "type": "address"
        },
        {
          "indexed": true,
          "internalType": "address",
          "name": "sender",
          "type": "address"
        }
      ],
      "name": "RoleGranted",
      "type": "event"
    },
    {
      "anonymous": false,
      "inputs": [
        {
          "indexed": true,
          "internalType": "bytes32",
          "name": "role",
          "type": "bytes32"
        },
        {
          "indexed": true,
          "internalType": "address",
          "name": "account",
          "type": "address"
        },
        {
          "indexed": true,
          "internalType": "address",
          "name": "sender",
          "type": "address"
        }
      ],
      "name": "RoleRevoked",
      "type": "event"
    },
    {
      "anonymous": false,
      "inputs": [
        {
          "indexed": true,
          "internalType": "uint256",
          "name": "tokenId",
          "type": "uint256"
        },
        {
          "indexed": false,
          "internalType": "uint256",
          "name": "newGene",
          "type": "uint256"
        }
      ],
      "name": "TokenMinted",
      "type": "event"
    },
    {
      "anonymous": false,
      "inputs": [
        {
          "indexed": true,
          "internalType": "uint256",
          "name": "tokenId",
          "type": "uint256"
        },
        {
          "indexed": false,
          "internalType": "uint256",
          "name": "oldGene",
          "type": "uint256"
        },
        {
          "indexed": false,
          "internalType": "uint256",
          "name": "newGene",
          "type": "uint256"
        },
        {
          "indexed": false,
          "internalType": "uint256",
          "name": "price",
          "type": "uint256"
        },
        {
          "indexed": false,
          "internalType": "enum PoppyPenguin.PoppyPenguinEventType",
          "name": "eventType",
          "type": "uint8"
        }
      ],
      "name": "TokenMorphed",
      "type": "event"
    },
    {
      "anonymous": false,
      "inputs": [
        {
          "indexed": true,
          "internalType": "address",
          "name": "from",
          "type": "address"
        },
        {
          "indexed": true,
          "internalType": "address",
          "name": "to",
          "type": "address"
        },
        {
          "indexed": true,
          "internalType": "uint256",
          "name": "tokenId",
          "type": "uint256"
        }
      ],
      "name": "Transfer",
      "type": "event"
    },
    {
      "anonymous": false,
      "inputs": [
        {
          "indexed": false,
          "internalType": "address",
          "name": "account",
          "type": "address"
        }
      ],
      "name": "Unpaused",
      "type": "event"
    },
    {
      "anonymous": false,
      "inputs": [
        {
          "indexed": false,
          "internalType": "string",
          "name": "arweaveAssetsJSON",
          "type": "string"
        }
      ],
      "name": "arweaveAssetsJSONChanged",
      "type": "event"
    },
    {
      "inputs": [],
      "name": "DEFAULT_ADMIN_ROLE",
      "outputs": [
        {
          "internalType": "bytes32",
          "name": "",
          "type": "bytes32"
        }
      ],
      "stateMutability": "view",
      "type": "function"
    },
    {
      "inputs": [],
      "name": "MINTER_ROLE",
      "outputs": [
        {
          "internalType": "bytes32",
          "name": "",
          "type": "bytes32"
        }
      ],
      "stateMutability": "view",
      "type": "function"
    },
    {
      "inputs": [],
      "name": "PAUSER_ROLE",
      "outputs": [
        {
          "internalType": "bytes32",
          "name": "",
          "type": "bytes32"
        }
      ],
      "stateMutability": "view",
      "type": "function"
    },
    {
      "inputs": [
        {
          "internalType": "address",
          "name": "to",
          "type": "address"
        },
        {
          "internalType": "uint256",
          "name": "tokenId",
          "type": "uint256"
        }
      ],
      "name": "approve",
      "outputs": [],
      "stateMutability": "nonpayable",
      "type": "function"
    },
    {
      "inputs": [],
      "name": "arweaveAssetsJSON",
      "outputs": [
        {
          "internalType": "string",
          "name": "",
          "type": "string"
        }
      ],
      "stateMutability": "view",
      "type": "function"
    },
    {
      "inputs": [
        {
          "internalType": "address",
          "name": "owner",
          "type": "address"
        }
      ],
      "name": "balanceOf",
      "outputs": [
        {
          "internalType": "uint256",
          "name": "",
          "type": "uint256"
        }
      ],
      "stateMutability": "view",
      "type": "function"
    },
    {
      "inputs": [],
      "name": "baseGenomeChangePrice",
      "outputs": [
        {
          "internalType": "uint256",
          "name": "",
          "type": "uint256"
        }
      ],
      "stateMutability": "view",
      "type": "function"
    },
    {
      "inputs": [],
      "name": "baseURI",
      "outputs": [
        {
          "internalType": "string",
          "name": "",
          "type": "string"
        }
      ],
      "stateMutability": "view",
      "type": "function"
    },
    {
      "inputs": [
        {
          "internalType": "uint256",
          "name": "amount",
          "type": "uint256"
        }
      ],
      "name": "bulkBuy",
      "outputs": [],
      "stateMutability": "payable",
      "type": "function"
    },
    {
      "inputs": [],
      "name": "bulkBuyLimit",
      "outputs": [
        {
          "internalType": "uint256",
          "name": "",
          "type": "uint256"
        }
      ],
      "stateMutability": "view",
      "type": "function"
    },
    {
      "inputs": [
        {
          "internalType": "uint256",
          "name": "tokenId",
          "type": "uint256"
        }
      ],
      "name": "burn",
      "outputs": [],
      "stateMutability": "nonpayable",
      "type": "function"
    },
    {
      "inputs": [
        {
          "internalType": "uint256",
          "name": "newGenomeChangePrice",
          "type": "uint256"
        }
      ],
      "name": "changeBaseGenomeChangePrice",
      "outputs": [],
      "stateMutability": "nonpayable",
      "type": "function"
    },
    {
      "inputs": [
        {
          "internalType": "uint256",
          "name": "newRandomizeGenomePrice",
          "type": "uint256"
        }
      ],
      "name": "changeRandomizeGenomePrice",
      "outputs": [],
      "stateMutability": "nonpayable",
      "type": "function"
    },
    {
      "inputs": [],
      "name": "daoAddress",
      "outputs": [
        {
          "internalType": "address payable",
          "name": "",
          "type": "address"
        }
      ],
      "stateMutability": "view",
      "type": "function"
    },
    {
      "inputs": [
        {
          "internalType": "uint256",
          "name": "tokenId",
          "type": "uint256"
        }
      ],
      "name": "geneOf",
      "outputs": [
        {
          "internalType": "uint256",
          "name": "gene",
          "type": "uint256"
        }
      ],
      "stateMutability": "view",
      "type": "function"
    },
    {
      "inputs": [
        {
          "internalType": "uint256",
          "name": "tokenId",
          "type": "uint256"
        }
      ],
      "name": "getApproved",
      "outputs": [
        {
          "internalType": "address",
          "name": "",
          "type": "address"
        }
      ],
      "stateMutability": "view",
      "type": "function"
    },
    {
      "inputs": [
        {
          "internalType": "bytes32",
          "name": "role",
          "type": "bytes32"
        }
      ],
      "name": "getRoleAdmin",
      "outputs": [
        {
          "internalType": "bytes32",
          "name": "",
          "type": "bytes32"
        }
      ],
      "stateMutability": "view",
      "type": "function"
    },
    {
      "inputs": [
        {
          "internalType": "bytes32",
          "name": "role",
          "type": "bytes32"
        },
        {
          "internalType": "uint256",
          "name": "index",
          "type": "uint256"
        }
      ],
      "name": "getRoleMember",
      "outputs": [
        {
          "internalType": "address",
          "name": "",
          "type": "address"
        }
      ],
      "stateMutability": "view",
      "type": "function"
    },
    {
      "inputs": [
        {
          "internalType": "bytes32",
          "name": "role",
          "type": "bytes32"
        }
      ],
      "name": "getRoleMemberCount",
      "outputs": [
        {
          "internalType": "uint256",
          "name": "",
          "type": "uint256"
        }
      ],
      "stateMutability": "view",
      "type": "function"
    },
    {
      "inputs": [
        {
          "internalType": "bytes32",
          "name": "role",
          "type": "bytes32"
        },
        {
          "internalType": "address",
          "name": "account",
          "type": "address"
        }
      ],
      "name": "grantRole",
      "outputs": [],
      "stateMutability": "nonpayable",
      "type": "function"
    },
    {
      "inputs": [
        {
          "internalType": "bytes32",
          "name": "role",
          "type": "bytes32"
        },
        {
          "internalType": "address",
          "name": "account",
          "type": "address"
        }
      ],
      "name": "hasRole",
      "outputs": [
        {
          "internalType": "bool",
          "name": "",
          "type": "bool"
        }
      ],
      "stateMutability": "view",
      "type": "function"
    },
    {
      "inputs": [
        {
          "internalType": "address",
          "name": "owner",
          "type": "address"
        },
        {
          "internalType": "address",
          "name": "operator",
          "type": "address"
        }
      ],
      "name": "isApprovedForAll",
      "outputs": [
        {
          "internalType": "bool",
          "name": "",
          "type": "bool"
        }
      ],
      "stateMutability": "view",
      "type": "function"
    },
    {
      "inputs": [],
      "name": "lastTokenId",
      "outputs": [
        {
          "internalType": "uint256",
          "name": "tokenId",
          "type": "uint256"
        }
      ],
      "stateMutability": "view",
      "type": "function"
    },
    {
      "inputs": [],
      "name": "maxSupply",
      "outputs": [
        {
          "internalType": "uint256",
          "name": "",
          "type": "uint256"
        }
      ],
      "stateMutability": "view",
      "type": "function"
    },
    {
      "inputs": [],
      "name": "mint",
      "outputs": [],
      "stateMutability": "payable",
      "type": "function"
    },
    {
      "inputs": [
        {
          "internalType": "address",
          "name": "to",
          "type": "address"
        }
      ],
      "name": "mint",
      "outputs": [],
      "stateMutability": "nonpayable",
      "type": "function"
    },
    {
      "inputs": [
        {
          "internalType": "uint256",
          "name": "tokenId",
          "type": "uint256"
        },
        {
          "internalType": "uint256",
          "name": "genePosition",
          "type": "uint256"
        }
      ],
      "name": "morphGene",
      "outputs": [],
      "stateMutability": "payable",
      "type": "function"
    },
    {
      "inputs": [],
      "name": "name",
      "outputs": [
        {
          "internalType": "string",
          "name": "",
          "type": "string"
        }
      ],
      "stateMutability": "view",
      "type": "function"
    },
    {
      "inputs": [
        {
          "internalType": "uint256",
          "name": "tokenId",
          "type": "uint256"
        }
      ],
      "name": "ownerOf",
      "outputs": [
        {
          "internalType": "address",
          "name": "",
          "type": "address"
        }
      ],
      "stateMutability": "view",
      "type": "function"
    },
    {
      "inputs": [],
      "name": "pause",
      "outputs": [],
      "stateMutability": "nonpayable",
      "type": "function"
    },
    {
      "inputs": [],
      "name": "paused",
      "outputs": [
        {
          "internalType": "bool",
          "name": "",
          "type": "bool"
        }
      ],
      "stateMutability": "view",
      "type": "function"
    },
    {
      "inputs": [],
      "name": "poppyPenguinPrice",
      "outputs": [
        {
          "internalType": "uint256",
          "name": "",
          "type": "uint256"
        }
      ],
      "stateMutability": "view",
      "type": "function"
    },
    {
      "inputs": [
        {
          "internalType": "uint256",
          "name": "tokenId",
          "type": "uint256"
        }
      ],
      "name": "priceForGenomeChange",
      "outputs": [
        {
          "internalType": "uint256",
          "name": "price",
          "type": "uint256"
        }
      ],
      "stateMutability": "view",
      "type": "function"
    },
    {
      "inputs": [
        {
          "internalType": "uint256",
          "name": "tokenId",
          "type": "uint256"
        }
      ],
      "name": "randomizeGenome",
      "outputs": [],
      "stateMutability": "payable",
      "type": "function"
    },
    {
      "inputs": [],
      "name": "randomizeGenomePrice",
      "outputs": [
        {
          "internalType": "uint256",
          "name": "",
          "type": "uint256"
        }
      ],
      "stateMutability": "view",
      "type": "function"
    },
    {
      "inputs": [
        {
          "internalType": "bytes32",
          "name": "role",
          "type": "bytes32"
        },
        {
          "internalType": "address",
          "name": "account",
          "type": "address"
        }
      ],
      "name": "renounceRole",
      "outputs": [],
      "stateMutability": "nonpayable",
      "type": "function"
    },
    {
      "inputs": [
        {
          "internalType": "bytes32",
          "name": "role",
          "type": "bytes32"
        },
        {
          "internalType": "address",
          "name": "account",
          "type": "address"
        }
      ],
      "name": "revokeRole",
      "outputs": [],
      "stateMutability": "nonpayable",
      "type": "function"
    },
    {
      "inputs": [
        {
          "internalType": "address",
          "name": "from",
          "type": "address"
        },
        {
          "internalType": "address",
          "name": "to",
          "type": "address"
        },
        {
          "internalType": "uint256",
          "name": "tokenId",
          "type": "uint256"
        }
      ],
      "name": "safeTransferFrom",
      "outputs": [],
      "stateMutability": "nonpayable",
      "type": "function"
    },
    {
      "inputs": [
        {
          "internalType": "address",
          "name": "from",
          "type": "address"
        },
        {
          "internalType": "address",
          "name": "to",
          "type": "address"
        },
        {
          "internalType": "uint256",
          "name": "tokenId",
          "type": "uint256"
        },
        {
          "internalType": "bytes",
          "name": "_data",
          "type": "bytes"
        }
      ],
      "name": "safeTransferFrom",
      "outputs": [],
      "stateMutability": "nonpayable",
      "type": "function"
    },
    {
      "inputs": [
        {
          "internalType": "address",
          "name": "operator",
          "type": "address"
        },
        {
          "internalType": "bool",
          "name": "approved",
          "type": "bool"
        }
      ],
      "name": "setApprovalForAll",
      "outputs": [],
      "stateMutability": "nonpayable",
      "type": "function"
    },
    {
      "inputs": [
        {
          "internalType": "string",
          "name": "_arweaveAssetsJSON",
          "type": "string"
        }
      ],
      "name": "setArweaveAssetsJSON",
      "outputs": [],
      "stateMutability": "nonpayable",
      "type": "function"
    },
    {
      "inputs": [
        {
          "internalType": "string",
          "name": "_baseURI",
          "type": "string"
        }
      ],
      "name": "setBaseURI",
      "outputs": [],
      "stateMutability": "nonpayable",
      "type": "function"
    },
    {
      "inputs": [
        {
          "internalType": "uint256",
          "name": "_bulkBuyLimit",
          "type": "uint256"
        }
      ],
      "name": "setBulkBuyLimit",
      "outputs": [],
      "stateMutability": "nonpayable",
      "type": "function"
    },
    {
      "inputs": [
        {
          "internalType": "uint256",
          "name": "_maxSupply",
          "type": "uint256"
        }
      ],
      "name": "setMaxSupply",
      "outputs": [],
      "stateMutability": "nonpayable",
      "type": "function"
    },
    {
      "inputs": [
        {
          "internalType": "uint256",
          "name": "newPoppyPenguinPrice",
          "type": "uint256"
        }
      ],
      "name": "setPoppyPenguinPrice",
      "outputs": [],
      "stateMutability": "nonpayable",
      "type": "function"
    },
    {
      "inputs": [
        {
          "internalType": "bytes4",
          "name": "interfaceId",
          "type": "bytes4"
        }
      ],
      "name": "supportsInterface",
      "outputs": [
        {
          "internalType": "bool",
          "name": "",
          "type": "bool"
        }
      ],
      "stateMutability": "view",
      "type": "function"
    },
    {
      "inputs": [],
      "name": "symbol",
      "outputs": [
        {
          "internalType": "string",
          "name": "",
          "type": "string"
        }
      ],
      "stateMutability": "view",
      "type": "function"
    },
    {
      "inputs": [
        {
          "internalType": "uint256",
          "name": "index",
          "type": "uint256"
        }
      ],
      "name": "tokenByIndex",
      "outputs": [
        {
          "internalType": "uint256",
          "name": "",
          "type": "uint256"
        }
      ],
      "stateMutability": "view",
      "type": "function"
    },
    {
      "inputs": [
        {
          "internalType": "address",
          "name": "owner",
          "type": "address"
        },
        {
          "internalType": "uint256",
          "name": "index",
          "type": "uint256"
        }
      ],
      "name": "tokenOfOwnerByIndex",
      "outputs": [
        {
          "internalType": "uint256",
          "name": "",
          "type": "uint256"
        }
      ],
      "stateMutability": "view",
      "type": "function"
    },
    {
      "inputs": [
        {
          "internalType": "uint256",
          "name": "tokenId",
          "type": "uint256"
        }
      ],
      "name": "tokenURI",
      "outputs": [
        {
          "internalType": "string",
          "name": "",
          "type": "string"
        }
      ],
      "stateMutability": "view",
      "type": "function"
    },
    {
      "inputs": [],
      "name": "totalSupply",
      "outputs": [
        {
          "internalType": "uint256",
          "name": "",
          "type": "uint256"
        }
      ],
      "stateMutability": "view",
      "type": "function"
    },
    {
      "inputs": [
        {
          "internalType": "address",
          "name": "from",
          "type": "address"
        },
        {
          "internalType": "address",
          "name": "to",
          "type": "address"
        },
        {
          "internalType": "uint256",
          "name": "tokenId",
          "type": "uint256"
        }
      ],
      "name": "transferFrom",
      "outputs": [],
      "stateMutability": "nonpayable",
      "type": "function"
    },
    {
      "inputs": [],
      "name": "unpause",
      "outputs": [],
      "stateMutability": "nonpayable",
      "type": "function"
    },
    {
      "stateMutability": "payable",
      "type": "receive"
    }
  ],
  "bytecode": "0x60806040523480156200001157600080fd5b506040516200742e3803806200742e83398181016040526101608110156200003857600080fd5b81019080805160405193929190846401000000008211156200005957600080fd5b838201915060208201858111156200007057600080fd5b82518660018202830111640100000000821117156200008e57600080fd5b8083526020830192505050908051906020019080838360005b83811015620000c4578082015181840152602081019050620000a7565b50505050905090810190601f168015620000f25780820380516001836020036101000a031916815260200191505b50604052602001805160405193929190846401000000008211156200011657600080fd5b838201915060208201858111156200012d57600080fd5b82518660018202830111640100000000821117156200014b57600080fd5b8083526020830192505050908051906020019080838360005b838110156200018157808201518184015260208101905062000164565b50505050905090810190601f168015620001af5780820380516001836020036101000a031916815260200191505b5060405260200180516040519392919084640100000000821115620001d357600080fd5b83820191506020820185811115620001ea57600080fd5b82518660018202830111640100000000821117156200020857600080fd5b8083526020830192505050908051906020019080838360005b838110156200023e57808201518184015260208101905062000221565b50505050905090810190601f1680156200026c5780820380516001836020036101000a031916815260200191505b506040526020018051906020019092919080519060200190929190805190602001909291908051906020019092919080519060200190929190805190602001909291908051906020019092919080516040519392919084640100000000821115620002d657600080fd5b83820191506020820185811115620002ed57600080fd5b82518660018202830111640100000000821117156200030b57600080fd5b8083526020830192505050908051906020019080838360005b838110156200034157808201518184015260208101905062000324565b50505050905090810190601f1680156200036f5780820380516001836020036101000a031916815260200191505b506040525050508a8a8a8a8a8989888888888882826200039c6301ffc9a760e01b620005b560201b60201c565b8160079080519060200190620003b492919062000f27565b508060089080519060200190620003cd92919062000f27565b50620003e66380ac58cd60e01b620005b560201b60201c565b620003fe635b5e139f60e01b620005b560201b60201c565b6200041663780e9d6360e01b620005b560201b60201c565b50506000600b60006101000a81548160ff021916908315150217905550620004576000801b6200044b620006be60201b60201c565b620006c660201b60201c565b620004987f9f2df0fed2c77648de5860a4cc508cd0818c85b8b8a1ab4ceeef8d981c8956a66200048c620006be60201b60201c565b620006c660201b60201c565b620004d97f65d7a28e3265b37a6474929f336521b332c1681b933f6cb9f3376673440d862a620004cd620006be60201b60201c565b620006c660201b60201c565b620004ea81620006dc60201b60201c565b5050506001600d8190555085600f60006101000a81548173ffffffffffffffffffffffffffffffffffffffff021916908373ffffffffffffffffffffffffffffffffffffffff16021790555083601081905550826011819055508160128190555080601390805190602001906200056392919062000f27565b506200057b600e620006f860201b62003ed31760201c565b506200058d85620007d160201b60201c565b5050505050505050508560168190555082601781905550505050505050505050505062000fcd565b63ffffffff60e01b817bffffffffffffffffffffffffffffffffffffffffffffffffffffffff1916141562000652576040517f08c379a000000000000000000000000000000000000000000000000000000000815260040180806020018281038252601c8152602001807f4552433136353a20696e76616c696420696e746572666163652069640000000081525060200191505060405180910390fd5b6001806000837bffffffffffffffffffffffffffffffffffffffffffffffffffffffff19167bffffffffffffffffffffffffffffffffffffffffffffffffffffffff1916815260200190815260200160002060006101000a81548160ff02191690831515021790555050565b600033905090565b620006d882826200087160201b60201c565b5050565b80600a9080519060200190620006f492919062000f27565b5050565b600033325a8460000154424343406064430340604051602001808973ffffffffffffffffffffffffffffffffffffffff1660601b81526014018873ffffffffffffffffffffffffffffffffffffffff1660601b81526014018781526020018681526020018581526020018481526020018381526020018281526020019850505050505050505060405160208183030381529060405280519060200120604051602001808281526020019150506040516020818303038152906040528051906020012060001c826000018190555081600001549050919050565b60005b818110156200086d57620007f4600c6200091460201b62003fac1760201c565b60006200080d600c6200092a60201b62003fc21760201c565b905062000826600e620006f860201b62003ed31760201c565b60146000838152602001908152602001600020819055506200085e62000851620006be60201b60201c565b826200093860201b60201c565b508080600101915050620007d4565b5050565b6200089f8160008085815260200190815260200160002060000162000b4c60201b62003fd01790919060201c565b156200091057620008b5620006be60201b60201c565b73ffffffffffffffffffffffffffffffffffffffff168173ffffffffffffffffffffffffffffffffffffffff16837f2f8788117e7eff1d82e926ec794901d17c78024a50270940304540a733656f0d60405160405180910390a45b5050565b6001816000016000828254019250508190555050565b600081600001549050919050565b600073ffffffffffffffffffffffffffffffffffffffff168273ffffffffffffffffffffffffffffffffffffffff161415620009dc576040517f08c379a00000000000000000000000000000000000000000000000000000000081526004018080602001828103825260208152602001807f4552433732313a206d696e7420746f20746865207a65726f206164647265737381525060200191505060405180910390fd5b620009ed8162000b8460201b60201c565b1562000a61576040517f08c379a000000000000000000000000000000000000000000000000000000000815260040180806020018281038252601c8152602001807f4552433732313a20746f6b656e20616c7265616479206d696e7465640000000081525060200191505060405180910390fd5b62000a756000838362000ba860201b60201c565b62000acd81600260008573ffffffffffffffffffffffffffffffffffffffff1673ffffffffffffffffffffffffffffffffffffffff16815260200190815260200160002062000c4960201b620040001790919060201c565b5062000aeb8183600362000c6b60201b6200401a179092919060201c565b50808273ffffffffffffffffffffffffffffffffffffffff16600073ffffffffffffffffffffffffffffffffffffffff167fddf252ad1be2c89b69c2b068fc378daa952ba7f163c4a11628f55a4df523b3ef60405160405180910390a45050565b600062000b7c836000018373ffffffffffffffffffffffffffffffffffffffff1660001b62000ca860201b60201c565b905092915050565b600062000ba182600362000d2260201b6200404f1790919060201c565b9050919050565b62000bc083838362000d4460201b620040691760201c565b807f8c0bdd7bca83c4e0c810cbecf44bc544a9dc0b9f265664e31ce0ce85f07a052b60146000848152602001908152602001600020546014600085815260200190815260200160002054600060026040518085815260200184815260200183815260200182600281111562000c3157fe5b815260200194505050505060405180910390a2505050565b600062000c63836000018360001b62000ca860201b60201c565b905092915050565b600062000c9f846000018460001b8473ffffffffffffffffffffffffffffffffffffffff1660001b62000d6160201b60201c565b90509392505050565b600062000cbc838362000e4060201b60201c565b62000d1757826000018290806001815401808255809150506001900390600052602060002001600090919091909150558260000180549050836001016000848152602001908152602001600020819055506001905062000d1c565b600090505b92915050565b600062000d3c836000018360001b62000e6360201b60201c565b905092915050565b62000d5c83838362000e8660201b620040791760201c565b505050565b600080846001016000858152602001908152602001600020549050600081141562000e0a5784600001604051806040016040528086815260200185815250908060018154018082558091505060019003906000526020600020906002020160009091909190915060008201518160000155602082015181600101555050846000018054905085600101600086815260200190815260200160002081905550600191505062000e39565b8285600001600183038154811062000e1e57fe5b90600052602060002090600202016001018190555060009150505b9392505050565b600080836001016000848152602001908152602001600020541415905092915050565b600080836001016000848152602001908152602001600020541415905092915050565b62000e9e83838362000f0b60201b620040e71760201c565b62000eae62000f1060201b60201c565b1562000f06576040517f08c379a000000000000000000000000000000000000000000000000000000000815260040180806020018281038252602b81526020018062007403602b913960400191505060405180910390fd5b505050565b505050565b6000600b60009054906101000a900460ff16905090565b828054600181600116156101000203166002900490600052602060002090601f016020900481019282601f1062000f6a57805160ff191683800117855562000f9b565b8280016001018555821562000f9b579182015b8281111562000f9a57825182559160200191906001019062000f7d565b5b50905062000faa919062000fae565b5090565b5b8082111562000fc957600081600090555060010162000faf565b5090565b6164268062000fdd6000396000f3fe60806040526004361061031e5760003560e01c80636c0360eb116101ab578063b88d4fde116100f7578063d5a83d3e11610095578063e985e9c51161006f578063e985e9c5146113b5578063ec9c074c1461143c578063f528a62714611467578063f84ddf0b146114f75761032d565b8063d5a83d3e14611331578063d5abeb011461135f578063e63ab1e91461138a5761032d565b8063ce14617d116100d1578063ce14617d14611231578063d45351e51461125c578063d5391393146112ab578063d547741f146112d65761032d565b8063b88d4fde1461101c578063c87b56dd1461112e578063ca15c873146111e25761032d565b806391d14854116101645780639e7bb4671161013e5780639e7bb46714610f3b578063a217fddf14610f69578063a22cb46514610f94578063a49bccca14610ff15761032d565b806391d1485414610dff57806395d89b4114610e7057806398c5c07814610f005761032d565b80636c0360eb14610c1e5780636f8b44b014610cae57806370a0823114610ce957806375b0a91114610d4e5780638456cb5914610d795780639010d07c14610d905761032d565b80633f4ba83a1161026a57806356a5c926116102235780635e468dfd116101fd5780635e468dfd14610ade5780636352211e14610b195780636a5be68614610b7e5780636a62784214610bcd5761032d565b806356a5c926146109b157806356b1b300146109e95780635c975abb14610ab15761032d565b80633f4ba83a1461079257806342842e0e146107a957806342966c68146108245780634f6ccce71461085f57806351cb0114146108ae57806355f804b3146108e95761032d565b80632131c68c116102d7578063289ea0a9116102b1578063289ea0a9146106325780632f2ff15d1461066d5780632f745c59146106c857806336568abe146107375761032d565b80632131c68c1461052757806323b872dd14610568578063248a9ca3146105e35761032d565b806301ffc9a71461033257806306fdde03146103a2578063081812fc14610432578063095ea7b3146104975780631249c58b146104f257806318160ddd146104fc5761032d565b3661032d5761032b611522565b005b600080fd5b34801561033e57600080fd5b5061038a6004803603602081101561035557600080fd5b8101908080357bffffffffffffffffffffffffffffffffffffffffffffffffffffffff19169060200190929190505050611921565b60405180821515815260200191505060405180910390f35b3480156103ae57600080fd5b506103b7611989565b6040518080602001828103825283818151815260200191508051906020019080838360005b838110156103f75780820151818401526020810190506103dc565b50505050905090810190601f1680156104245780820380516001836020036101000a031916815260200191505b509250505060405180910390f35b34801561043e57600080fd5b5061046b6004803603602081101561045557600080fd5b8101908080359060200190929190505050611a2b565b604051808273ffffffffffffffffffffffffffffffffffffffff16815260200191505060405180910390f35b3480156104a357600080fd5b506104f0600480360360408110156104ba57600080fd5b81019080803573ffffffffffffffffffffffffffffffffffffffff16906020019092919080359060200190929190505050611ac6565b005b6104fa611522565b005b34801561050857600080fd5b50610511611c0a565b6040518082815260200191505060405180910390f35b34801561053357600080fd5b5061053c611c1b565b604051808273ffffffffffffffffffffffffffffffffffffffff16815260200191505060405180910390f35b34801561057457600080fd5b506105e16004803603606081101561058b57600080fd5b81019080803573ffffffffffffffffffffffffffffffffffffffff169060200190929190803573ffffffffffffffffffffffffffffffffffffffff16906020019092919080359060200190929190505050611c41565b005b3480156105ef57600080fd5b5061061c6004803603602081101561060657600080fd5b8101908080359060200190929190505050611cb7565b6040518082815260200191505060405180910390f35b34801561063e57600080fd5b5061066b6004803603602081101561065557600080fd5b8101908080359060200190929190505050611cd6565b005b34801561067957600080fd5b506106c66004803603604081101561069057600080fd5b8101908080359060200190929190803573ffffffffffffffffffffffffffffffffffffffff169060200190929190505050611dda565b005b3480156106d457600080fd5b50610721600480360360408110156106eb57600080fd5b81019080803573ffffffffffffffffffffffffffffffffffffffff16906020019092919080359060200190929190505050611e63565b6040518082815260200191505060405180910390f35b34801561074357600080fd5b506107906004803603604081101561075a57600080fd5b8101908080359060200190929190803573ffffffffffffffffffffffffffffffffffffffff169060200190929190505050611ebe565b005b34801561079e57600080fd5b506107a7611f57565b005b3480156107b557600080fd5b50610822600480360360608110156107cc57600080fd5b81019080803573ffffffffffffffffffffffffffffffffffffffff169060200190929190803573ffffffffffffffffffffffffffffffffffffffff16906020019092919080359060200190929190505050611fe7565b005b34801561083057600080fd5b5061085d6004803603602081101561084757600080fd5b8101908080359060200190929190505050612007565b005b34801561086b57600080fd5b506108986004803603602081101561088257600080fd5b8101908080359060200190929190505050612079565b6040518082815260200191505060405180910390f35b3480156108ba57600080fd5b506108e7600480360360208110156108d157600080fd5b810190808035906020019092919050505061209c565b005b3480156108f557600080fd5b506109af6004803603602081101561090c57600080fd5b810190808035906020019064010000000081111561092957600080fd5b82018360208201111561093b57600080fd5b8035906020019184600183028401116401000000008311171561095d57600080fd5b91908080601f016020809104026020016040519081016040528093929190818152602001838380828437600081840152601f19601f8201169050808301925050505050505091929192905050506121a0565b005b6109e7600480360360408110156109c757600080fd5b81019080803590602001909291908035906020019092919050505061230b565b005b3480156109f557600080fd5b50610aaf60048036036020811015610a0c57600080fd5b8101908080359060200190640100000000811115610a2957600080fd5b820183602082011115610a3b57600080fd5b80359060200191846001830284011164010000000083111715610a5d57600080fd5b91908080601f016020809104026020016040519081016040528093929190818152602001838380828437600081840152601f19601f8201169050808301925050505050505091929192905050506126e0565b005b348015610abd57600080fd5b50610ac6612859565b60405180821515815260200191505060405180910390f35b348015610aea57600080fd5b50610b1760048036036020811015610b0157600080fd5b8101908080359060200190929190505050612870565b005b348015610b2557600080fd5b50610b5260048036036020811015610b3c57600080fd5b8101908080359060200190929190505050612974565b604051808273ffffffffffffffffffffffffffffffffffffffff16815260200191505060405180910390f35b348015610b8a57600080fd5b50610bb760048036036020811015610ba157600080fd5b81019080803590602001909291905050506129ab565b6040518082815260200191505060405180910390f35b348015610bd957600080fd5b50610c1c60048036036020811015610bf057600080fd5b81019080803573ffffffffffffffffffffffffffffffffffffffff1690602001909291905050506129c8565b005b348015610c2a57600080fd5b50610c33612a36565b6040518080602001828103825283818151815260200191508051906020019080838360005b83811015610c73578082015181840152602081019050610c58565b50505050905090810190601f168015610ca05780820380516001836020036101000a031916815260200191505b509250505060405180910390f35b348015610cba57600080fd5b50610ce760048036036020811015610cd157600080fd5b8101908080359060200190929190505050612ad8565b005b348015610cf557600080fd5b50610d3860048036036020811015610d0c57600080fd5b81019080803573ffffffffffffffffffffffffffffffffffffffff169060200190929190505050612bde565b6040518082815260200191505060405180910390f35b348015610d5a57600080fd5b50610d63612cb3565b6040518082815260200191505060405180910390f35b348015610d8557600080fd5b50610d8e612cb9565b005b348015610d9c57600080fd5b50610dd360048036036040811015610db357600080fd5b810190808035906020019092919080359060200190929190505050612d49565b604051808273ffffffffffffffffffffffffffffffffffffffff16815260200191505060405180910390f35b348015610e0b57600080fd5b50610e5860048036036040811015610e2257600080fd5b8101908080359060200190929190803573ffffffffffffffffffffffffffffffffffffffff169060200190929190505050612d7a565b60405180821515815260200191505060405180910390f35b348015610e7c57600080fd5b50610e85612dab565b6040518080602001828103825283818151815260200191508051906020019080838360005b83811015610ec5578082015181840152602081019050610eaa565b50505050905090810190601f168015610ef25780820380516001836020036101000a031916815260200191505b509250505060405180910390f35b348015610f0c57600080fd5b50610f3960048036036020811015610f2357600080fd5b8101908080359060200190929190505050612e4d565b005b610f6760048036036020811015610f5157600080fd5b8101908080359060200190929190505050612f51565b005b348015610f7557600080fd5b50610f7e613296565b6040518082815260200191505060405180910390f35b348015610fa057600080fd5b50610fef60048036036040811015610fb757600080fd5b81019080803573ffffffffffffffffffffffffffffffffffffffff16906020019092919080351515906020019092919050505061329d565b005b348015610ffd57600080fd5b50611006613453565b6040518082815260200191505060405180910390f35b34801561102857600080fd5b5061112c6004803603608081101561103f57600080fd5b81019080803573ffffffffffffffffffffffffffffffffffffffff169060200190929190803573ffffffffffffffffffffffffffffffffffffffff16906020019092919080359060200190929190803590602001906401000000008111156110a657600080fd5b8201836020820111156110b857600080fd5b803590602001918460018302840111640100000000831117156110da57600080fd5b91908080601f016020809104026020016040519081016040528093929190818152602001838380828437600081840152601f19601f820116905080830192505050505050509192919290505050613459565b005b34801561113a57600080fd5b506111676004803603602081101561115157600080fd5b81019080803590602001909291905050506134d1565b6040518080602001828103825283818151815260200191508051906020019080838360005b838110156111a757808201518184015260208101905061118c565b50505050905090810190601f1680156111d45780820380516001836020036101000a031916815260200191505b509250505060405180910390f35b3480156111ee57600080fd5b5061121b6004803603602081101561120557600080fd5b81019080803590602001909291905050506137a2565b6040518082815260200191505060405180910390f35b34801561123d57600080fd5b506112466137c8565b6040518082815260200191505060405180910390f35b34801561126857600080fd5b506112956004803603602081101561127f57600080fd5b81019080803590602001909291905050506137ce565b6040518082815260200191505060405180910390f35b3480156112b757600080fd5b506112c0613808565b6040518082815260200191505060405180910390f35b3480156112e257600080fd5b5061132f600480360360408110156112f957600080fd5b8101908080359060200190929190803573ffffffffffffffffffffffffffffffffffffffff16906020019092919050505061382c565b005b61135d6004803603602081101561134757600080fd5b81019080803590602001909291905050506138b5565b005b34801561136b57600080fd5b50611374613d60565b6040518082815260200191505060405180910390f35b34801561139657600080fd5b5061139f613d66565b6040518082815260200191505060405180910390f35b3480156113c157600080fd5b50611424600480360360408110156113d857600080fd5b81019080803573ffffffffffffffffffffffffffffffffffffffff169060200190929190803573ffffffffffffffffffffffffffffffffffffffff169060200190929190505050613d8a565b60405180821515815260200191505060405180910390f35b34801561144857600080fd5b50611451613e1e565b6040518082815260200191505060405180910390f35b34801561147357600080fd5b5061147c613e24565b6040518080602001828103825283818151815260200191508051906020019080838360005b838110156114bc5780820151818401526020810190506114a1565b50505050905090810190601f1680156114e95780820380516001836020036101000a031916815260200191505b509250505060405180910390f35b34801561150357600080fd5b5061150c613ec2565b6040518082815260200191505060405180910390f35b6002600d54141561159b576040517f08c379a000000000000000000000000000000000000000000000000000000000815260040180806020018281038252601f8152602001807f5265656e7472616e637947756172643a207265656e7472616e742063616c6c0081525060200191505060405180910390fd5b6002600d819055506011546115b0600c613fc2565b10611623576040517f08c379a00000000000000000000000000000000000000000000000000000000081526004018080602001828103825260158152602001807f546f74616c20737570706c79207265616368656421000000000000000000000081525060200191505060405180910390fd5b61162d600c613fac565b6000611639600c613fc2565b9050611645600e613ed3565b60146000838152602001908152602001600020819055506000600f60009054906101000a900473ffffffffffffffffffffffffffffffffffffffff1673ffffffffffffffffffffffffffffffffffffffff1660105460405180600001905060006040518083038185875af1925050503d80600081146116e0576040519150601f19603f3d011682016040523d82523d6000602084013e6116e5565b606091505b505090508061173f576040517f08c379a000000000000000000000000000000000000000000000000000000000815260040180806020018281038252603a8152602001806160c7603a913960400191505060405180910390fd5b6000611756601054346140ec90919063ffffffff16565b9050600081111561184657600061176b61416f565b73ffffffffffffffffffffffffffffffffffffffff168260405180600001905060006040518083038185875af1925050503d80600081146117c8576040519150601f19603f3d011682016040523d82523d6000602084013e6117cd565b606091505b5050905080611844576040517f08c379a00000000000000000000000000000000000000000000000000000000081526004018080602001828103825260188152602001807f4661696c656420746f2072657475726e206578636573732e000000000000000081525060200191505060405180910390fd5b505b61185761185161416f565b84614177565b827f5f7666687319b40936f33c188908d86aea154abd3f4127b4fa0a3f04f303c7da60146000868152602001908152602001600020546040518082815260200191505060405180910390a2827f8c0bdd7bca83c4e0c810cbecf44bc544a9dc0b9f265664e31ce0ce85f07a052b6000601460008781526020019081526020016000205460105460006040518085815260200184815260200183815260200182600281111561190157fe5b815260200194505050505060405180910390a25050506001600d81905550565b600060016000837bffffffffffffffffffffffffffffffffffffffffffffffffffffffff19167bffffffffffffffffffffffffffffffffffffffffffffffffffffffff1916815260200190815260200160002060009054906101000a900460ff169050919050565b606060078054600181600116156101000203166002900480601f016020809104026020016040519081016040528092919081815260200182805460018160011615610100020316600290048015611a215780601f106119f657610100808354040283529160200191611a21565b820191906000526020600020905b815481529060010190602001808311611a0457829003601f168201915b5050505050905090565b6000611a368261436b565b611a8b576040517f08c379a000000000000000000000000000000000000000000000000000000000815260040180806020018281038252602c815260200180616251602c913960400191505060405180910390fd5b6005600083815260200190815260200160002060009054906101000a900473ffffffffffffffffffffffffffffffffffffffff169050919050565b6000611ad182612974565b90508073ffffffffffffffffffffffffffffffffffffffff168373ffffffffffffffffffffffffffffffffffffffff161415611b58576040517f08c379a00000000000000000000000000000000000000000000000000000000081526004018080602001828103825260218152602001806162d56021913960400191505060405180910390fd5b8073ffffffffffffffffffffffffffffffffffffffff16611b7761416f565b73ffffffffffffffffffffffffffffffffffffffff161480611ba65750611ba581611ba061416f565b613d8a565b5b611bfb576040517f08c379a00000000000000000000000000000000000000000000000000000000081526004018080602001828103825260388152602001806161836038913960400191505060405180910390fd5b611c058383614388565b505050565b6000611c166003614441565b905090565b600f60009054906101000a900473ffffffffffffffffffffffffffffffffffffffff1681565b611c52611c4c61416f565b82614456565b611ca7576040517f08c379a00000000000000000000000000000000000000000000000000000000081526004018080602001828103825260318152602001806163216031913960400191505060405180910390fd5b611cb283838361454a565b505050565b6000806000838152602001908152602001600020600201549050919050565b600f60009054906101000a900473ffffffffffffffffffffffffffffffffffffffff1673ffffffffffffffffffffffffffffffffffffffff163373ffffffffffffffffffffffffffffffffffffffff1614611d99576040517f08c379a00000000000000000000000000000000000000000000000000000000081526004018080602001828103825260178152602001807f4e6f742043616c6c65642066726f6d207468652064616f00000000000000000081525060200191505060405180910390fd5b806016819055507fb1d78271daba9a366098d40b64d642a1399cabaa22c5234bacc87e92cef82ae6816040518082815260200191505060405180910390a150565b611e0060008084815260200190815260200160002060020154611dfb61416f565b612d7a565b611e55576040517f08c379a000000000000000000000000000000000000000000000000000000000815260040180806020018281038252602f815260200180615f80602f913960400191505060405180910390fd5b611e5f828261478d565b5050565b6000611eb682600260008673ffffffffffffffffffffffffffffffffffffffff1673ffffffffffffffffffffffffffffffffffffffff16815260200190815260200160002061482090919063ffffffff16565b905092915050565b611ec661416f565b73ffffffffffffffffffffffffffffffffffffffff168173ffffffffffffffffffffffffffffffffffffffff1614611f49576040517f08c379a000000000000000000000000000000000000000000000000000000000815260040180806020018281038252602f8152602001806163c2602f913960400191505060405180910390fd5b611f53828261483a565b5050565b611f887f65d7a28e3265b37a6474929f336521b332c1681b933f6cb9f3376673440d862a611f8361416f565b612d7a565b611fdd576040517f08c379a00000000000000000000000000000000000000000000000000000000081526004018080602001828103825260408152602001806163826040913960400191505060405180910390fd5b611fe56148cd565b565b61200283838360405180602001604052806000815250613459565b505050565b61201861201261416f565b82614456565b61206d576040517f08c379a00000000000000000000000000000000000000000000000000000000081526004018080602001828103825260308152602001806163526030913960400191505060405180910390fd5b612076816149b8565b50565b600080612090836003614af290919063ffffffff16565b50905080915050919050565b600f60009054906101000a900473ffffffffffffffffffffffffffffffffffffffff1673ffffffffffffffffffffffffffffffffffffffff163373ffffffffffffffffffffffffffffffffffffffff161461215f576040517f08c379a00000000000000000000000000000000000000000000000000000000081526004018080602001828103825260178152602001807f4e6f742043616c6c65642066726f6d207468652064616f00000000000000000081525060200191505060405180910390fd5b806010819055507feabbded81d50f6019ed079bcee1150aabc9c0d3199cb6d875b7f321578deca34816040518082815260200191505060405180910390a150565b600f60009054906101000a900473ffffffffffffffffffffffffffffffffffffffff1673ffffffffffffffffffffffffffffffffffffffff163373ffffffffffffffffffffffffffffffffffffffff1614612263576040517f08c379a00000000000000000000000000000000000000000000000000000000081526004018080602001828103825260178152602001807f4e6f742043616c6c65642066726f6d207468652064616f00000000000000000081525060200191505060405180910390fd5b61226c81614b1e565b7f5411e8ebf1636d9e83d5fc4900bf80cbac82e8790da2a4c94db4895e889eedf6816040518080602001828103825283818151815260200191508051906020019080838360005b838110156122ce5780820151818401526020810190506122b3565b50505050905090810190601f1680156122fb5780820380516001836020036101000a031916815260200191505b509250505060405180910390a150565b6002600d541415612384576040517f08c379a000000000000000000000000000000000000000000000000000000000815260040180806020018281038252601f8152602001807f5265656e7472616e637947756172643a207265656e7472616e742063616c6c0081525060200191505060405180910390fd5b6002600d8190555060008111612402576040517f08c379a000000000000000000000000000000000000000000000000000000000815260040180806020018281038252601c8152602001807f4261736520636861726163746572206e6f74206d6f72706861626c650000000081525060200191505060405180910390fd5b61240b82614b38565b6000612416836137ce565b90506000600f60009054906101000a900473ffffffffffffffffffffffffffffffffffffffff1673ffffffffffffffffffffffffffffffffffffffff168260405180600001905060006040518083038185875af1925050503d806000811461249a576040519150601f19603f3d011682016040523d82523d6000602084013e61249f565b606091505b50509050806124f9576040517f08c379a000000000000000000000000000000000000000000000000000000000815260040180806020018281038252603a8152602001806160c7603a913960400191505060405180910390fd5b600061250e83346140ec90919063ffffffff16565b905060008111156125fe57600061252361416f565b73ffffffffffffffffffffffffffffffffffffffff168260405180600001905060006040518083038185875af1925050503d8060008114612580576040519150601f19603f3d011682016040523d82523d6000602084013e612585565b606091505b50509050806125fc576040517f08c379a00000000000000000000000000000000000000000000000000000000081526004018080602001828103825260188152602001807f4661696c656420746f2072657475726e206578636573732e000000000000000081525060200191505060405180910390fd5b505b60006014600087815260200190815260200160002054905060006064612624600e613ed3565b8161262b57fe5b069050612639828288614c67565b60146000898152602001908152602001600020819055506015600088815260200190815260200160002060008154809291906001019190505550867f8c0bdd7bca83c4e0c810cbecf44bc544a9dc0b9f265664e31ce0ce85f07a052b8384886001604051808581526020018481526020018381526020018260028111156126bc57fe5b815260200194505050505060405180910390a250505050506001600d819055505050565b600f60009054906101000a900473ffffffffffffffffffffffffffffffffffffffff1673ffffffffffffffffffffffffffffffffffffffff163373ffffffffffffffffffffffffffffffffffffffff16146127a3576040517f08c379a00000000000000000000000000000000000000000000000000000000081526004018080602001828103825260178152602001807f4e6f742043616c6c65642066726f6d207468652064616f00000000000000000081525060200191505060405180910390fd5b80601390805190602001906127b9929190615e4d565b507fe1ea6e62a0b360acc613f2021ab3c5d36492a25bce6d0d9940a6b497c87363df816040518080602001828103825283818151815260200191508051906020019080838360005b8381101561281c578082015181840152602081019050612801565b50505050905090810190601f1680156128495780820380516001836020036101000a031916815260200191505b509250505060405180910390a150565b6000600b60009054906101000a900460ff16905090565b600f60009054906101000a900473ffffffffffffffffffffffffffffffffffffffff1673ffffffffffffffffffffffffffffffffffffffff163373ffffffffffffffffffffffffffffffffffffffff1614612933576040517f08c379a00000000000000000000000000000000000000000000000000000000081526004018080602001828103825260178152602001807f4e6f742043616c6c65642066726f6d207468652064616f00000000000000000081525060200191505060405180910390fd5b806012819055507fa0e0113404674c6f545b966e8ec54db3066a6c720a0054f0bc4b0c900cfff243816040518082815260200191505060405180910390a150565b60006129a4826040518060600160405280602981526020016161e5602991396003614d7e9092919063ffffffff16565b9050919050565b600060146000838152602001908152602001600020549050919050565b6040517f08c379a00000000000000000000000000000000000000000000000000000000081526004018080602001828103825260178152602001807f53686f756c64206e6f74207573652074686973206f6e6500000000000000000081525060200191505060405180910390fd5b6060600a8054600181600116156101000203166002900480601f016020809104026020016040519081016040528092919081815260200182805460018160011615610100020316600290048015612ace5780601f10612aa357610100808354040283529160200191612ace565b820191906000526020600020905b815481529060010190602001808311612ab157829003601f168201915b5050505050905090565b600f60009054906101000a900473ffffffffffffffffffffffffffffffffffffffff1673ffffffffffffffffffffffffffffffffffffffff163373ffffffffffffffffffffffffffffffffffffffff1614612b9b576040517f08c379a00000000000000000000000000000000000000000000000000000000081526004018080602001828103825260178152602001807f4e6f742043616c6c65642066726f6d207468652064616f00000000000000000081525060200191505060405180910390fd5b806011819055507f28a10a2e0b5582da7164754cb994f6214b8af6aa7f7e003305fbc09e7106c5136011546040518082815260200191505060405180910390a150565b60008073ffffffffffffffffffffffffffffffffffffffff168273ffffffffffffffffffffffffffffffffffffffff161415612c65576040517f08c379a000000000000000000000000000000000000000000000000000000000815260040180806020018281038252602a8152602001806161bb602a913960400191505060405180910390fd5b612cac600260008473ffffffffffffffffffffffffffffffffffffffff1673ffffffffffffffffffffffffffffffffffffffff168152602001908152602001600020614d9d565b9050919050565b60105481565b612cea7f65d7a28e3265b37a6474929f336521b332c1681b933f6cb9f3376673440d862a612ce561416f565b612d7a565b612d3f576040517f08c379a000000000000000000000000000000000000000000000000000000000815260040180806020018281038252603e815260200180616065603e913960400191505060405180910390fd5b612d47614db2565b565b6000612d7282600080868152602001908152602001600020600001614e9e90919063ffffffff16565b905092915050565b6000612da382600080868152602001908152602001600020600001614eb890919063ffffffff16565b905092915050565b606060088054600181600116156101000203166002900480601f016020809104026020016040519081016040528092919081815260200182805460018160011615610100020316600290048015612e435780601f10612e1857610100808354040283529160200191612e43565b820191906000526020600020905b815481529060010190602001808311612e2657829003601f168201915b5050505050905090565b600f60009054906101000a900473ffffffffffffffffffffffffffffffffffffffff1673ffffffffffffffffffffffffffffffffffffffff163373ffffffffffffffffffffffffffffffffffffffff1614612f10576040517f08c379a00000000000000000000000000000000000000000000000000000000081526004018080602001828103825260178152602001807f4e6f742043616c6c65642066726f6d207468652064616f00000000000000000081525060200191505060405180910390fd5b806017819055507fff4da8d01e7184cc8c9d6c57d64b336b1de6d676b6215408967bd071c8da7e3d816040518082815260200191505060405180910390a150565b6002600d541415612fca576040517f08c379a000000000000000000000000000000000000000000000000000000000815260040180806020018281038252601f8152602001807f5265656e7472616e637947756172643a207265656e7472616e742063616c6c0081525060200191505060405180910390fd5b6002600d81905550612fdb81614b38565b6000600f60009054906101000a900473ffffffffffffffffffffffffffffffffffffffff1673ffffffffffffffffffffffffffffffffffffffff1660175460405180600001905060006040518083038185875af1925050503d806000811461305f576040519150601f19603f3d011682016040523d82523d6000602084013e613064565b606091505b50509050806130be576040517f08c379a000000000000000000000000000000000000000000000000000000000815260040180806020018281038252603a8152602001806160c7603a913960400191505060405180910390fd5b60006130d5601754346140ec90919063ffffffff16565b905060008111156131c55760006130ea61416f565b73ffffffffffffffffffffffffffffffffffffffff168260405180600001905060006040518083038185875af1925050503d8060008114613147576040519150601f19603f3d011682016040523d82523d6000602084013e61314c565b606091505b50509050806131c3576040517f08c379a00000000000000000000000000000000000000000000000000000000081526004018080602001828103825260188152602001807f4661696c656420746f2072657475726e206578636573732e000000000000000081525060200191505060405180910390fd5b505b6000601460008581526020019081526020016000205490506131e7600e613ed3565b601460008681526020019081526020016000208190555060006015600086815260200190815260200160002081905550837f8c0bdd7bca83c4e0c810cbecf44bc544a9dc0b9f265664e31ce0ce85f07a052b82601460008881526020019081526020016000205460175460016040518085815260200184815260200183815260200182600281111561327557fe5b815260200194505050505060405180910390a25050506001600d8190555050565b6000801b81565b6132a561416f565b73ffffffffffffffffffffffffffffffffffffffff168273ffffffffffffffffffffffffffffffffffffffff161415613346576040517f08c379a00000000000000000000000000000000000000000000000000000000081526004018080602001828103825260198152602001807f4552433732313a20617070726f766520746f2063616c6c65720000000000000081525060200191505060405180910390fd5b806006600061335361416f565b73ffffffffffffffffffffffffffffffffffffffff1673ffffffffffffffffffffffffffffffffffffffff16815260200190815260200160002060008473ffffffffffffffffffffffffffffffffffffffff1673ffffffffffffffffffffffffffffffffffffffff16815260200190815260200160002060006101000a81548160ff0219169083151502179055508173ffffffffffffffffffffffffffffffffffffffff1661340061416f565b73ffffffffffffffffffffffffffffffffffffffff167f17307eab39ab6107e8899845ad3d59bd9653f200f220920489ca2b5937696c318360405180821515815260200191505060405180910390a35050565b60125481565b61346a61346461416f565b83614456565b6134bf576040517f08c379a00000000000000000000000000000000000000000000000000000000081526004018080602001828103825260318152602001806163216031913960400191505060405180910390fd5b6134cb84848484614ee8565b50505050565b60606134dc8261436b565b613531576040517f08c379a000000000000000000000000000000000000000000000000000000000815260040180806020018281038252602f8152602001806162a6602f913960400191505060405180910390fd5b6060600960008481526020019081526020016000208054600181600116156101000203166002900480601f0160208091040260200160405190810160405280929190818152602001828054600181600116156101000203166002900480156135da5780601f106135af576101008083540402835291602001916135da565b820191906000526020600020905b8154815290600101906020018083116135bd57829003601f168201915b5050505050905060606135eb612a36565b905060008151141561360157819250505061379d565b6000825111156136d25780826040516020018083805190602001908083835b602083106136435780518252602082019150602081019050602083039250613620565b6001836020036101000a03801982511681845116808217855250505050505090500182805190602001908083835b602083106136945780518252602082019150602081019050602083039250613671565b6001836020036101000a038019825116818451168082178552505050505050905001925050506040516020818303038152906040529250505061379d565b806136dc85614f5a565b6040516020018083805190602001908083835b6020831061371257805182526020820191506020810190506020830392506136ef565b6001836020036101000a03801982511681845116808217855250505050505090500182805190602001908083835b602083106137635780518252602082019150602081019050602083039250613740565b6001836020036101000a03801982511681845116808217855250505050505090500192505050604051602081830303815290604052925050505b919050565b60006137c16000808481526020019081526020016000206000016150a1565b9050919050565b60165481565b60008060156000848152602001908152602001600020549050613800816001901b6016546150b690919063ffffffff16565b915050919050565b7f9f2df0fed2c77648de5860a4cc508cd0818c85b8b8a1ab4ceeef8d981c8956a681565b6138526000808481526020019081526020016000206002015461384d61416f565b612d7a565b6138a7576040517f08c379a00000000000000000000000000000000000000000000000000000000081526004018080602001828103825260308152602001806161536030913960400191505060405180910390fd5b6138b1828261483a565b5050565b6002600d54141561392e576040517f08c379a000000000000000000000000000000000000000000000000000000000815260040180806020018281038252601f8152602001807f5265656e7472616e637947756172643a207265656e7472616e742063616c6c0081525060200191505060405180910390fd5b6002600d81905550601254811115613991576040517f08c379a000000000000000000000000000000000000000000000000000000000815260040180806020018281038252602b8152602001806162f6602b913960400191505060405180910390fd5b6011546139b0826139a2600c613fc2565b61513c90919063ffffffff16565b1115613a24576040517f08c379a00000000000000000000000000000000000000000000000000000000081526004018080602001828103825260148152602001807f546f74616c20737570706c79207265616368656400000000000000000000000081525060200191505060405180910390fd5b6000600f60009054906101000a900473ffffffffffffffffffffffffffffffffffffffff1673ffffffffffffffffffffffffffffffffffffffff16613a74836010546150b690919063ffffffff16565b60405180600001905060006040518083038185875af1925050503d8060008114613aba576040519150601f19603f3d011682016040523d82523d6000602084013e613abf565b606091505b5050905080613b19576040517f08c379a000000000000000000000000000000000000000000000000000000000815260040180806020018281038252603a815260200180615faf603a913960400191505060405180910390fd5b6000613b42613b33846010546150b690919063ffffffff16565b346140ec90919063ffffffff16565b90506000811115613c32576000613b5761416f565b73ffffffffffffffffffffffffffffffffffffffff168260405180600001905060006040518083038185875af1925050503d8060008114613bb4576040519150601f19603f3d011682016040523d82523d6000602084013e613bb9565b606091505b5050905080613c30576040517f08c379a00000000000000000000000000000000000000000000000000000000081526004018080602001828103825260188152602001807f4661696c656420746f2072657475726e206578636573732e000000000000000081525060200191505060405180910390fd5b505b60005b83811015613d5257613c47600c613fac565b6000613c53600c613fc2565b9050613c5f600e613ed3565b6014600083815260200190815260200160002081905550613c87613c8161416f565b82614177565b807f5f7666687319b40936f33c188908d86aea154abd3f4127b4fa0a3f04f303c7da60146000848152602001908152602001600020546040518082815260200191505060405180910390a2807f8c0bdd7bca83c4e0c810cbecf44bc544a9dc0b9f265664e31ce0ce85f07a052b60006014600085815260200190815260200160002054601054600060405180858152602001848152602001838152602001826002811115613d3157fe5b815260200194505050505060405180910390a2508080600101915050613c35565b5050506001600d8190555050565b60115481565b7f65d7a28e3265b37a6474929f336521b332c1681b933f6cb9f3376673440d862a81565b6000600660008473ffffffffffffffffffffffffffffffffffffffff1673ffffffffffffffffffffffffffffffffffffffff16815260200190815260200160002060008373ffffffffffffffffffffffffffffffffffffffff1673ffffffffffffffffffffffffffffffffffffffff16815260200190815260200160002060009054906101000a900460ff16905092915050565b60175481565b60138054600181600116156101000203166002900480601f016020809104026020016040519081016040528092919081815260200182805460018160011615610100020316600290048015613eba5780601f10613e8f57610100808354040283529160200191613eba565b820191906000526020600020905b815481529060010190602001808311613e9d57829003601f168201915b505050505081565b6000613ece600c613fc2565b905090565b600033325a8460000154424343406064430340604051602001808973ffffffffffffffffffffffffffffffffffffffff1660601b81526014018873ffffffffffffffffffffffffffffffffffffffff1660601b81526014018781526020018681526020018581526020018481526020018381526020018281526020019850505050505050505060405160208183030381529060405280519060200120604051602001808281526020019150506040516020818303038152906040528051906020012060001c826000018190555081600001549050919050565b6001816000016000828254019250508190555050565b600081600001549050919050565b6000613ff8836000018373ffffffffffffffffffffffffffffffffffffffff1660001b6151c4565b905092915050565b6000614012836000018360001b6151c4565b905092915050565b6000614046846000018460001b8473ffffffffffffffffffffffffffffffffffffffff1660001b615234565b90509392505050565b6000614061836000018360001b615310565b905092915050565b614074838383614079565b505050565b6140848383836140e7565b61408c612859565b156140e2576040517f08c379a000000000000000000000000000000000000000000000000000000000815260040180806020018281038252602b815260200180615f55602b913960400191505060405180910390fd5b505050565b505050565b600082821115614164576040517f08c379a000000000000000000000000000000000000000000000000000000000815260040180806020018281038252601e8152602001807f536166654d6174683a207375627472616374696f6e206f766572666c6f77000081525060200191505060405180910390fd5b818303905092915050565b600033905090565b600073ffffffffffffffffffffffffffffffffffffffff168273ffffffffffffffffffffffffffffffffffffffff16141561421a576040517f08c379a00000000000000000000000000000000000000000000000000000000081526004018080602001828103825260208152602001807f4552433732313a206d696e7420746f20746865207a65726f206164647265737381525060200191505060405180910390fd5b6142238161436b565b15614296576040517f08c379a000000000000000000000000000000000000000000000000000000000815260040180806020018281038252601c8152602001807f4552433732313a20746f6b656e20616c7265616479206d696e7465640000000081525060200191505060405180910390fd5b6142a260008383615333565b6142f381600260008573ffffffffffffffffffffffffffffffffffffffff1673ffffffffffffffffffffffffffffffffffffffff16815260200190815260200160002061400090919063ffffffff16565b5061430a8183600361401a9092919063ffffffff16565b50808273ffffffffffffffffffffffffffffffffffffffff16600073ffffffffffffffffffffffffffffffffffffffff167fddf252ad1be2c89b69c2b068fc378daa952ba7f163c4a11628f55a4df523b3ef60405160405180910390a45050565b600061438182600361404f90919063ffffffff16565b9050919050565b816005600083815260200190815260200160002060006101000a81548173ffffffffffffffffffffffffffffffffffffffff021916908373ffffffffffffffffffffffffffffffffffffffff160217905550808273ffffffffffffffffffffffffffffffffffffffff166143fb83612974565b73ffffffffffffffffffffffffffffffffffffffff167f8c5be1e5ebec7d5bd14f71427d1e84f3dd0314c0f7b2291e5b200ac8c7c3b92560405160405180910390a45050565b600061444f826000016153c6565b9050919050565b60006144618261436b565b6144b6576040517f08c379a000000000000000000000000000000000000000000000000000000000815260040180806020018281038252602c815260200180616127602c913960400191505060405180910390fd5b60006144c183612974565b90508073ffffffffffffffffffffffffffffffffffffffff168473ffffffffffffffffffffffffffffffffffffffff16148061453057508373ffffffffffffffffffffffffffffffffffffffff1661451884611a2b565b73ffffffffffffffffffffffffffffffffffffffff16145b8061454157506145408185613d8a565b5b91505092915050565b8273ffffffffffffffffffffffffffffffffffffffff1661456a82612974565b73ffffffffffffffffffffffffffffffffffffffff16146145d6576040517f08c379a000000000000000000000000000000000000000000000000000000000815260040180806020018281038252602981526020018061627d6029913960400191505060405180910390fd5b600073ffffffffffffffffffffffffffffffffffffffff168273ffffffffffffffffffffffffffffffffffffffff16141561465c576040517f08c379a00000000000000000000000000000000000000000000000000000000081526004018080602001828103825260248152602001806160a36024913960400191505060405180910390fd5b614667838383615333565b614672600082614388565b6146c381600260008673ffffffffffffffffffffffffffffffffffffffff1673ffffffffffffffffffffffffffffffffffffffff1681526020019081526020016000206153d790919063ffffffff16565b5061471581600260008573ffffffffffffffffffffffffffffffffffffffff1673ffffffffffffffffffffffffffffffffffffffff16815260200190815260200160002061400090919063ffffffff16565b5061472c8183600361401a9092919063ffffffff16565b50808273ffffffffffffffffffffffffffffffffffffffff168473ffffffffffffffffffffffffffffffffffffffff167fddf252ad1be2c89b69c2b068fc378daa952ba7f163c4a11628f55a4df523b3ef60405160405180910390a4505050565b6147b481600080858152602001908152602001600020600001613fd090919063ffffffff16565b1561481c576147c161416f565b73ffffffffffffffffffffffffffffffffffffffff168173ffffffffffffffffffffffffffffffffffffffff16837f2f8788117e7eff1d82e926ec794901d17c78024a50270940304540a733656f0d60405160405180910390a45b5050565b600061482f83600001836153f1565b60001c905092915050565b6148618160008085815260200190815260200160002060000161547490919063ffffffff16565b156148c95761486e61416f565b73ffffffffffffffffffffffffffffffffffffffff168173ffffffffffffffffffffffffffffffffffffffff16837ff6391f5c32d9c69d2a47ea670b442974b53935d1edc7fd64eb21e047a839171b60405160405180910390a45b5050565b6148d5612859565b614947576040517f08c379a00000000000000000000000000000000000000000000000000000000081526004018080602001828103825260148152602001807f5061757361626c653a206e6f742070617573656400000000000000000000000081525060200191505060405180910390fd5b6000600b60006101000a81548160ff0219169083151502179055507f5db9ee0a495bf2e6ff9c91a7834c1ba4fdd244a5e8aa4e537bd38aeae4b073aa61498b61416f565b604051808273ffffffffffffffffffffffffffffffffffffffff16815260200191505060405180910390a1565b60006149c382612974565b90506149d181600084615333565b6149dc600083614388565b60006009600084815260200190815260200160002080546001816001161561010002031660029004905014614a2b57600960008381526020019081526020016000206000614a2a9190615ecd565b5b614a7c82600260008473ffffffffffffffffffffffffffffffffffffffff1673ffffffffffffffffffffffffffffffffffffffff1681526020019081526020016000206153d790919063ffffffff16565b50614a918260036154a490919063ffffffff16565b5081600073ffffffffffffffffffffffffffffffffffffffff168273ffffffffffffffffffffffffffffffffffffffff167fddf252ad1be2c89b69c2b068fc378daa952ba7f163c4a11628f55a4df523b3ef60405160405180910390a45050565b600080600080614b0586600001866154be565b915091508160001c8160001c9350935050509250929050565b80600a9080519060200190614b34929190615e4d565b5050565b614b5e614b4361416f565b73ffffffffffffffffffffffffffffffffffffffff16615557565b15614bd1576040517f08c379a000000000000000000000000000000000000000000000000000000000815260040180806020018281038252601b8152602001807f43616c6c65722063616e6e6f74206265206120636f6e7472616374000000000081525060200191505060405180910390fd5b614bd961416f565b73ffffffffffffffffffffffffffffffffffffffff16614bf882612974565b73ffffffffffffffffffffffffffffffffffffffff1614614c64576040517f08c379a000000000000000000000000000000000000000000000000000000000815260040180806020018281038252604a81526020018061601b604a913960600191505060405180910390fd5b50565b600060268210614cdf576040517f08c379a00000000000000000000000000000000000000000000000000000000081526004018080602001828103825260108152602001807f42616467656e6520706f736974696f6e0000000000000000000000000000000081525060200191505060405180910390fd5b600080831115614d0557614d0260028402600a0a8661556a90919063ffffffff16565b90505b6000614d3e60026001860102600a0a614d3060026001880102600a0a896155f390919063ffffffff16565b6150b690919063ffffffff16565b9050600060028502600a0a86029050614d7283614d64838561513c90919063ffffffff16565b61513c90919063ffffffff16565b93505050509392505050565b6000614d91846000018460001b8461567c565b60001c90509392505050565b6000614dab82600001615772565b9050919050565b614dba612859565b15614e2d576040517f08c379a00000000000000000000000000000000000000000000000000000000081526004018080602001828103825260108152602001807f5061757361626c653a207061757365640000000000000000000000000000000081525060200191505060405180910390fd5b6001600b60006101000a81548160ff0219169083151502179055507f62e78cea01bee320cd4e420270b5ea74000d11b0c9f74754ebdbfc544b05a258614e7161416f565b604051808273ffffffffffffffffffffffffffffffffffffffff16815260200191505060405180910390a1565b6000614ead83600001836153f1565b60001c905092915050565b6000614ee0836000018373ffffffffffffffffffffffffffffffffffffffff1660001b615783565b905092915050565b614ef384848461454a565b614eff848484846157a6565b614f54576040517f08c379a0000000000000000000000000000000000000000000000000000000008152600401808060200182810382526032815260200180615fe96032913960400191505060405180910390fd5b50505050565b60606000821415614fa2576040518060400160405280600181526020017f3000000000000000000000000000000000000000000000000000000000000000815250905061509c565b600082905060005b60008214614fcc578080600101915050600a8281614fc457fe5b049150614faa565b60608167ffffffffffffffff81118015614fe557600080fd5b506040519080825280601f01601f1916602001820160405280156150185781602001600182028036833780820191505090505b50905060006001830390508593505b6000841461509457600a848161503957fe5b0660300160f81b8282806001900393508151811061505357fe5b60200101907effffffffffffffffffffffffffffffffffffffffffffffffffffffffffffff1916908160001a905350600a848161508c57fe5b049350615027565b819450505050505b919050565b60006150af82600001615772565b9050919050565b6000808314156150c95760009050615136565b60008284029050828482816150da57fe5b0414615131576040517f08c379a00000000000000000000000000000000000000000000000000000000081526004018080602001828103825260218152602001806162306021913960400191505060405180910390fd5b809150505b92915050565b6000808284019050838110156151ba576040517f08c379a000000000000000000000000000000000000000000000000000000000815260040180806020018281038252601b8152602001807f536166654d6174683a206164646974696f6e206f766572666c6f77000000000081525060200191505060405180910390fd5b8091505092915050565b60006151d08383615783565b61522957826000018290806001815401808255809150506001900390600052602060002001600090919091909150558260000180549050836001016000848152602001908152602001600020819055506001905061522e565b600090505b92915050565b60008084600101600085815260200190815260200160002054905060008114156152db57846000016040518060400160405280868152602001858152509080600181540180825580915050600190039060005260206000209060020201600090919091909150600082015181600001556020820151816001015550508460000180549050856001016000868152602001908152602001600020819055506001915050615309565b828560000160018303815481106152ee57fe5b90600052602060002090600202016001018190555060009150505b9392505050565b600080836001016000848152602001908152602001600020541415905092915050565b61533e838383614069565b807f8c0bdd7bca83c4e0c810cbecf44bc544a9dc0b9f265664e31ce0ce85f07a052b6014600084815260200190815260200160002054601460008581526020019081526020016000205460006002604051808581526020018481526020018381526020018260028111156153ae57fe5b815260200194505050505060405180910390a2505050565b600081600001805490509050919050565b60006153e9836000018360001b6159bf565b905092915050565b600081836000018054905011615452576040517f08c379a0000000000000000000000000000000000000000000000000000000008152600401808060200182810382526022815260200180615f336022913960400191505060405180910390fd5b82600001828154811061546157fe5b9060005260206000200154905092915050565b600061549c836000018373ffffffffffffffffffffffffffffffffffffffff1660001b6159bf565b905092915050565b60006154b6836000018360001b615aa7565b905092915050565b60008082846000018054905011615520576040517f08c379a000000000000000000000000000000000000000000000000000000000815260040180806020018281038252602281526020018061620e6022913960400191505060405180910390fd5b600084600001848154811061553157fe5b906000526020600020906002020190508060000154816001015492509250509250929050565b600080823b905060008111915050919050565b60008082116155e1576040517f08c379a00000000000000000000000000000000000000000000000000000000081526004018080602001828103825260188152602001807f536166654d6174683a206d6f64756c6f206279207a65726f000000000000000081525060200191505060405180910390fd5b8183816155ea57fe5b06905092915050565b600080821161566a576040517f08c379a000000000000000000000000000000000000000000000000000000000815260040180806020018281038252601a8152602001807f536166654d6174683a206469766973696f6e206279207a65726f00000000000081525060200191505060405180910390fd5b81838161567357fe5b04905092915050565b60008084600101600085815260200190815260200160002054905060008114158390615743576040517f08c379a00000000000000000000000000000000000000000000000000000000081526004018080602001828103825283818151815260200191508051906020019080838360005b838110156157085780820151818401526020810190506156ed565b50505050905090810190601f1680156157355780820380516001836020036101000a031916815260200191505b509250505060405180910390fd5b5084600001600182038154811061575657fe5b9060005260206000209060020201600101549150509392505050565b600081600001805490509050919050565b600080836001016000848152602001908152602001600020541415905092915050565b60006157c78473ffffffffffffffffffffffffffffffffffffffff16615557565b6157d457600190506159b7565b606061593e63150b7a0260e01b6157e961416f565b888787604051602401808573ffffffffffffffffffffffffffffffffffffffff1681526020018473ffffffffffffffffffffffffffffffffffffffff16815260200183815260200180602001828103825283818151815260200191508051906020019080838360005b8381101561586d578082015181840152602081019050615852565b50505050905090810190601f16801561589a5780820380516001836020036101000a031916815260200191505b5095505050505050604051602081830303815290604052907bffffffffffffffffffffffffffffffffffffffffffffffffffffffff19166020820180517bffffffffffffffffffffffffffffffffffffffffffffffffffffffff8381831617835250505050604051806060016040528060328152602001615fe9603291398773ffffffffffffffffffffffffffffffffffffffff16615bc09092919063ffffffff16565b9050600081806020019051602081101561595757600080fd5b8101908080519060200190929190505050905063150b7a0260e01b7bffffffffffffffffffffffffffffffffffffffffffffffffffffffff1916817bffffffffffffffffffffffffffffffffffffffffffffffffffffffff191614925050505b949350505050565b60008083600101600084815260200190815260200160002054905060008114615a9b5760006001820390506000600186600001805490500390506000866000018281548110615a0a57fe5b9060005260206000200154905080876000018481548110615a2757fe5b9060005260206000200181905550600183018760010160008381526020019081526020016000208190555086600001805480615a5f57fe5b60019003818190600052602060002001600090559055866001016000878152602001908152602001600020600090556001945050505050615aa1565b60009150505b92915050565b60008083600101600084815260200190815260200160002054905060008114615bb45760006001820390506000600186600001805490500390506000866000018281548110615af257fe5b9060005260206000209060020201905080876000018481548110615b1257fe5b9060005260206000209060020201600082015481600001556001820154816001015590505060018301876001016000836000015481526020019081526020016000208190555086600001805480615b6557fe5b6001900381819060005260206000209060020201600080820160009055600182016000905550509055866001016000878152602001908152602001600020600090556001945050505050615bba565b60009150505b92915050565b6060615bcf8484600085615bd8565b90509392505050565b606082471015615c33576040517f08c379a00000000000000000000000000000000000000000000000000000000081526004018080602001828103825260268152602001806161016026913960400191505060405180910390fd5b615c3c85615557565b615cae576040517f08c379a000000000000000000000000000000000000000000000000000000000815260040180806020018281038252601d8152602001807f416464726573733a2063616c6c20746f206e6f6e2d636f6e747261637400000081525060200191505060405180910390fd5b600060608673ffffffffffffffffffffffffffffffffffffffff1685876040518082805190602001908083835b60208310615cfe5780518252602082019150602081019050602083039250615cdb565b6001836020036101000a03801982511681845116808217855250505050505090500191505060006040518083038185875af1925050503d8060008114615d60576040519150601f19603f3d011682016040523d82523d6000602084013e615d65565b606091505b5091509150615d75828286615d81565b92505050949350505050565b60608315615d9157829050615e46565b600083511115615da45782518084602001fd5b816040517f08c379a00000000000000000000000000000000000000000000000000000000081526004018080602001828103825283818151815260200191508051906020019080838360005b83811015615e0b578082015181840152602081019050615df0565b50505050905090810190601f168015615e385780820380516001836020036101000a031916815260200191505b509250505060405180910390fd5b9392505050565b828054600181600116156101000203166002900490600052602060002090601f016020900481019282601f10615e8e57805160ff1916838001178555615ebc565b82800160010185558215615ebc579182015b82811115615ebb578251825591602001919060010190615ea0565b5b509050615ec99190615f15565b5090565b50805460018160011615610100020316600290046000825580601f10615ef35750615f12565b601f016020900490600052602060002090810190615f119190615f15565b5b50565b5b80821115615f2e576000816000905550600101615f16565b509056fe456e756d657261626c655365743a20696e646578206f7574206f6620626f756e64734552433732315061757361626c653a20746f6b656e207472616e73666572207768696c6520706175736564416363657373436f6e74726f6c3a2073656e646572206d75737420626520616e2061646d696e20746f206772616e74416464726573734c20756e61626c6520746f2073656e642076616c75652c20726563697069656e74206d617920686176652072657665727465644552433732313a207472616e7366657220746f206e6f6e20455243373231526563656976657220696d706c656d656e746572506f70707950656e6775696e5769746847656e654368616e6765723a2063616e6e6f74206368616e67652067656e6f6d65206f6620746f6b656e2074686973206973206e6f77206f776e4552433732315072657365744d696e7465725061757365724175746f49643a206d75737420686176652070617573657220726f6c6520746f2070617573654552433732313a207472616e7366657220746f20746865207a65726f2061646472657373416464726573733a20756e61626c6520746f2073656e642076616c75652c20726563697069656e74206d61792068617665207265766572746564416464726573733a20696e73756666696369656e742062616c616e636520666f722063616c6c4552433732313a206f70657261746f7220717565727920666f72206e6f6e6578697374656e7420746f6b656e416363657373436f6e74726f6c3a2073656e646572206d75737420626520616e2061646d696e20746f207265766f6b654552433732313a20617070726f76652063616c6c6572206973206e6f74206f776e6572206e6f7220617070726f76656420666f7220616c6c4552433732313a2062616c616e636520717565727920666f7220746865207a65726f20616464726573734552433732313a206f776e657220717565727920666f72206e6f6e6578697374656e7420746f6b656e456e756d657261626c654d61703a20696e646578206f7574206f6620626f756e6473536166654d6174683a206d756c7469706c69636174696f6e206f766572666c6f774552433732313a20617070726f76656420717565727920666f72206e6f6e6578697374656e7420746f6b656e4552433732313a207472616e73666572206f6620746f6b656e2074686174206973206e6f74206f776e4552433732314d657461646174613a2055524920717565727920666f72206e6f6e6578697374656e7420746f6b656e4552433732313a20617070726f76616c20746f2063757272656e74206f776e657243616e6e6f742062756c6b20627579206d6f7265207468616e2074686520707265736574206c696d69742e4552433732313a207472616e736665722063616c6c6572206973206e6f74206f776e6572206e6f7220617070726f7665644552433732314275726e61626c653a2063616c6c6572206973206e6f74206f776e6572206e6f7220617070726f7665644552433732315072657365744d696e7465725061757365724175746f49643a206d75737420686176652070617573657220726f6c6520746f20756e7061757365416363657373436f6e74726f6c3a2063616e206f6e6c792072656e6f756e636520726f6c657320666f722073656c66a2646970667358221220ea49b453816b05f4c32bb7c8071af8b0a0fc37383187538f2b8b62364e1ed30964736f6c634300070300334552433732315061757361626c653a20746f6b656e207472616e73666572207768696c6520706175736564",
  "linkReferences": {},
  "deployedLinkReferences": {}
}