{
  "_format": "hh-sol-artifact-1",
  "contractName": "PoppyPenguin",
  "sourceName": "contracts/PoppyPenguin.sol",
  "abi": [
    {
      "inputs": [
        {
          "internalType": "string",
          "name": "name",
          "type": "string"
        },
        {
          "internalType": "string",
          "name": "symbol",
          "type": "string"
        },
        {
          "internalType": "string",
          "name": "baseURI",
          "type": "string"
        },
        {
          "internalType": "address payable",
          "name": "_daoAddress",
          "type": "address"
        },
        {
          "internalType": "uint256",
          "name": "premintedTokensCount",
          "type": "uint256"
        },
        {
          "internalType": "uint256",
          "name": "_poppyPenguinPrice",
          "type": "uint256"
        },
        {
          "internalType": "uint256",
          "name": "_maxSupply",
          "type": "uint256"
        },
        {
          "internalType": "uint256",
          "name": "_bulkBuyLimit",
          "type": "uint256"
        },
        {
          "internalType": "string",
          "name": "_arweaveAssetsJSON",
          "type": "string"
        }
      ],
      "stateMutability": "nonpayable",
      "type": "constructor"
    },
    {
      "anonymous": false,
      "inputs": [
        {
          "indexed": true,
          "internalType": "address",
          "name": "owner",
          "type": "address"
        },
        {
          "indexed": true,
          "internalType": "address",
          "name": "approved",
          "type": "address"
        },
        {
          "indexed": true,
          "internalType": "uint256",
          "name": "tokenId",
          "type": "uint256"
        }
      ],
      "name": "Approval",
      "type": "event"
    },
    {
      "anonymous": false,
      "inputs": [
        {
          "indexed": true,
          "internalType": "address",
          "name": "owner",
          "type": "address"
        },
        {
          "indexed": true,
          "internalType": "address",
          "name": "operator",
          "type": "address"
        },
        {
          "indexed": false,
          "internalType": "bool",
          "name": "approved",
          "type": "bool"
        }
      ],
      "name": "ApprovalForAll",
      "type": "event"
    },
    {
      "anonymous": false,
      "inputs": [
        {
          "indexed": false,
          "internalType": "string",
          "name": "baseURI",
          "type": "string"
        }
      ],
      "name": "BaseURIChanged",
      "type": "event"
    },
    {
      "anonymous": false,
      "inputs": [
        {
          "indexed": false,
          "internalType": "uint256",
          "name": "newBulkBuyLimit",
          "type": "uint256"
        }
      ],
      "name": "BulkBuyLimitChanged",
      "type": "event"
    },
    {
      "anonymous": false,
      "inputs": [
        {
          "indexed": false,
          "internalType": "uint256",
          "name": "newMaxSupply",
          "type": "uint256"
        }
      ],
      "name": "MaxSupplyChanged",
      "type": "event"
    },
    {
      "anonymous": false,
      "inputs": [
        {
          "indexed": false,
          "internalType": "address",
          "name": "account",
          "type": "address"
        }
      ],
      "name": "Paused",
      "type": "event"
    },
    {
      "anonymous": false,
      "inputs": [
        {
          "indexed": false,
          "internalType": "uint256",
          "name": "newPoppyPenguinPrice",
          "type": "uint256"
        }
      ],
      "name": "PoppyPenguinPriceChanged",
      "type": "event"
    },
    {
      "anonymous": false,
      "inputs": [
        {
          "indexed": true,
          "internalType": "bytes32",
          "name": "role",
          "type": "bytes32"
        },
        {
          "indexed": true,
          "internalType": "bytes32",
          "name": "previousAdminRole",
          "type": "bytes32"
        },
        {
          "indexed": true,
          "internalType": "bytes32",
          "name": "newAdminRole",
          "type": "bytes32"
        }
      ],
      "name": "RoleAdminChanged",
      "type": "event"
    },
    {
      "anonymous": false,
      "inputs": [
        {
          "indexed": true,
          "internalType": "bytes32",
          "name": "role",
          "type": "bytes32"
        },
        {
          "indexed": true,
          "internalType": "address",
          "name": "account",
          "type": "address"
        },
        {
          "indexed": true,
          "internalType": "address",
          "name": "sender",
          "type": "address"
        }
      ],
      "name": "RoleGranted",
      "type": "event"
    },
    {
      "anonymous": false,
      "inputs": [
        {
          "indexed": true,
          "internalType": "bytes32",
          "name": "role",
          "type": "bytes32"
        },
        {
          "indexed": true,
          "internalType": "address",
          "name": "account",
          "type": "address"
        },
        {
          "indexed": true,
          "internalType": "address",
          "name": "sender",
          "type": "address"
        }
      ],
      "name": "RoleRevoked",
      "type": "event"
    },
    {
      "anonymous": false,
      "inputs": [
        {
          "indexed": true,
          "internalType": "uint256",
          "name": "tokenId",
          "type": "uint256"
        },
        {
          "indexed": false,
          "internalType": "uint256",
          "name": "newGene",
          "type": "uint256"
        }
      ],
      "name": "TokenMinted",
      "type": "event"
    },
    {
      "anonymous": false,
      "inputs": [
        {
          "indexed": true,
          "internalType": "uint256",
          "name": "tokenId",
          "type": "uint256"
        },
        {
          "indexed": false,
          "internalType": "uint256",
          "name": "oldGene",
          "type": "uint256"
        },
        {
          "indexed": false,
          "internalType": "uint256",
          "name": "newGene",
          "type": "uint256"
        },
        {
          "indexed": false,
          "internalType": "uint256",
          "name": "price",
          "type": "uint256"
        },
        {
          "indexed": false,
          "internalType": "enum PoppyPenguin.PoppyPenguinEventType",
          "name": "eventType",
          "type": "uint8"
        }
      ],
      "name": "TokenMorphed",
      "type": "event"
    },
    {
      "anonymous": false,
      "inputs": [
        {
          "indexed": true,
          "internalType": "address",
          "name": "from",
          "type": "address"
        },
        {
          "indexed": true,
          "internalType": "address",
          "name": "to",
          "type": "address"
        },
        {
          "indexed": true,
          "internalType": "uint256",
          "name": "tokenId",
          "type": "uint256"
        }
      ],
      "name": "Transfer",
      "type": "event"
    },
    {
      "anonymous": false,
      "inputs": [
        {
          "indexed": false,
          "internalType": "address",
          "name": "account",
          "type": "address"
        }
      ],
      "name": "Unpaused",
      "type": "event"
    },
    {
      "anonymous": false,
      "inputs": [
        {
          "indexed": false,
          "internalType": "string",
          "name": "arweaveAssetsJSON",
          "type": "string"
        }
      ],
      "name": "arweaveAssetsJSONChanged",
      "type": "event"
    },
    {
      "inputs": [],
      "name": "DEFAULT_ADMIN_ROLE",
      "outputs": [
        {
          "internalType": "bytes32",
          "name": "",
          "type": "bytes32"
        }
      ],
      "stateMutability": "view",
      "type": "function"
    },
    {
      "inputs": [],
      "name": "MINTER_ROLE",
      "outputs": [
        {
          "internalType": "bytes32",
          "name": "",
          "type": "bytes32"
        }
      ],
      "stateMutability": "view",
      "type": "function"
    },
    {
      "inputs": [],
      "name": "PAUSER_ROLE",
      "outputs": [
        {
          "internalType": "bytes32",
          "name": "",
          "type": "bytes32"
        }
      ],
      "stateMutability": "view",
      "type": "function"
    },
    {
      "inputs": [
        {
          "internalType": "address",
          "name": "to",
          "type": "address"
        },
        {
          "internalType": "uint256",
          "name": "tokenId",
          "type": "uint256"
        }
      ],
      "name": "approve",
      "outputs": [],
      "stateMutability": "nonpayable",
      "type": "function"
    },
    {
      "inputs": [],
      "name": "arweaveAssetsJSON",
      "outputs": [
        {
          "internalType": "string",
          "name": "",
          "type": "string"
        }
      ],
      "stateMutability": "view",
      "type": "function"
    },
    {
      "inputs": [
        {
          "internalType": "address",
          "name": "owner",
          "type": "address"
        }
      ],
      "name": "balanceOf",
      "outputs": [
        {
          "internalType": "uint256",
          "name": "",
          "type": "uint256"
        }
      ],
      "stateMutability": "view",
      "type": "function"
    },
    {
      "inputs": [],
      "name": "baseURI",
      "outputs": [
        {
          "internalType": "string",
          "name": "",
          "type": "string"
        }
      ],
      "stateMutability": "view",
      "type": "function"
    },
    {
      "inputs": [
        {
          "internalType": "uint256",
          "name": "amount",
          "type": "uint256"
        }
      ],
      "name": "bulkBuy",
      "outputs": [],
      "stateMutability": "payable",
      "type": "function"
    },
    {
      "inputs": [],
      "name": "bulkBuyLimit",
      "outputs": [
        {
          "internalType": "uint256",
          "name": "",
          "type": "uint256"
        }
      ],
      "stateMutability": "view",
      "type": "function"
    },
    {
      "inputs": [
        {
          "internalType": "uint256",
          "name": "tokenId",
          "type": "uint256"
        }
      ],
      "name": "burn",
      "outputs": [],
      "stateMutability": "nonpayable",
      "type": "function"
    },
    {
      "inputs": [],
      "name": "daoAddress",
      "outputs": [
        {
          "internalType": "address payable",
          "name": "",
          "type": "address"
        }
      ],
      "stateMutability": "view",
      "type": "function"
    },
    {
      "inputs": [
        {
          "internalType": "uint256",
          "name": "tokenId",
          "type": "uint256"
        }
      ],
      "name": "geneOf",
      "outputs": [
        {
          "internalType": "uint256",
          "name": "gene",
          "type": "uint256"
        }
      ],
      "stateMutability": "view",
      "type": "function"
    },
    {
      "inputs": [
        {
          "internalType": "uint256",
          "name": "tokenId",
          "type": "uint256"
        }
      ],
      "name": "getApproved",
      "outputs": [
        {
          "internalType": "address",
          "name": "",
          "type": "address"
        }
      ],
      "stateMutability": "view",
      "type": "function"
    },
    {
      "inputs": [
        {
          "internalType": "bytes32",
          "name": "role",
          "type": "bytes32"
        }
      ],
      "name": "getRoleAdmin",
      "outputs": [
        {
          "internalType": "bytes32",
          "name": "",
          "type": "bytes32"
        }
      ],
      "stateMutability": "view",
      "type": "function"
    },
    {
      "inputs": [
        {
          "internalType": "bytes32",
          "name": "role",
          "type": "bytes32"
        },
        {
          "internalType": "uint256",
          "name": "index",
          "type": "uint256"
        }
      ],
      "name": "getRoleMember",
      "outputs": [
        {
          "internalType": "address",
          "name": "",
          "type": "address"
        }
      ],
      "stateMutability": "view",
      "type": "function"
    },
    {
      "inputs": [
        {
          "internalType": "bytes32",
          "name": "role",
          "type": "bytes32"
        }
      ],
      "name": "getRoleMemberCount",
      "outputs": [
        {
          "internalType": "uint256",
          "name": "",
          "type": "uint256"
        }
      ],
      "stateMutability": "view",
      "type": "function"
    },
    {
      "inputs": [
        {
          "internalType": "bytes32",
          "name": "role",
          "type": "bytes32"
        },
        {
          "internalType": "address",
          "name": "account",
          "type": "address"
        }
      ],
      "name": "grantRole",
      "outputs": [],
      "stateMutability": "nonpayable",
      "type": "function"
    },
    {
      "inputs": [
        {
          "internalType": "bytes32",
          "name": "role",
          "type": "bytes32"
        },
        {
          "internalType": "address",
          "name": "account",
          "type": "address"
        }
      ],
      "name": "hasRole",
      "outputs": [
        {
          "internalType": "bool",
          "name": "",
          "type": "bool"
        }
      ],
      "stateMutability": "view",
      "type": "function"
    },
    {
      "inputs": [
        {
          "internalType": "address",
          "name": "owner",
          "type": "address"
        },
        {
          "internalType": "address",
          "name": "operator",
          "type": "address"
        }
      ],
      "name": "isApprovedForAll",
      "outputs": [
        {
          "internalType": "bool",
          "name": "",
          "type": "bool"
        }
      ],
      "stateMutability": "view",
      "type": "function"
    },
    {
      "inputs": [],
      "name": "lastTokenId",
      "outputs": [
        {
          "internalType": "uint256",
          "name": "tokenId",
          "type": "uint256"
        }
      ],
      "stateMutability": "view",
      "type": "function"
    },
    {
      "inputs": [],
      "name": "maxSupply",
      "outputs": [
        {
          "internalType": "uint256",
          "name": "",
          "type": "uint256"
        }
      ],
      "stateMutability": "view",
      "type": "function"
    },
    {
      "inputs": [],
      "name": "mint",
      "outputs": [],
      "stateMutability": "payable",
      "type": "function"
    },
    {
      "inputs": [
        {
          "internalType": "address",
          "name": "to",
          "type": "address"
        }
      ],
      "name": "mint",
      "outputs": [],
      "stateMutability": "nonpayable",
      "type": "function"
    },
    {
      "inputs": [],
      "name": "name",
      "outputs": [
        {
          "internalType": "string",
          "name": "",
          "type": "string"
        }
      ],
      "stateMutability": "view",
      "type": "function"
    },
    {
      "inputs": [
        {
          "internalType": "uint256",
          "name": "tokenId",
          "type": "uint256"
        }
      ],
      "name": "ownerOf",
      "outputs": [
        {
          "internalType": "address",
          "name": "",
          "type": "address"
        }
      ],
      "stateMutability": "view",
      "type": "function"
    },
    {
      "inputs": [],
      "name": "pause",
      "outputs": [],
      "stateMutability": "nonpayable",
      "type": "function"
    },
    {
      "inputs": [],
      "name": "paused",
      "outputs": [
        {
          "internalType": "bool",
          "name": "",
          "type": "bool"
        }
      ],
      "stateMutability": "view",
      "type": "function"
    },
    {
      "inputs": [],
      "name": "poppyPenguinPrice",
      "outputs": [
        {
          "internalType": "uint256",
          "name": "",
          "type": "uint256"
        }
      ],
      "stateMutability": "view",
      "type": "function"
    },
    {
      "inputs": [
        {
          "internalType": "bytes32",
          "name": "role",
          "type": "bytes32"
        },
        {
          "internalType": "address",
          "name": "account",
          "type": "address"
        }
      ],
      "name": "renounceRole",
      "outputs": [],
      "stateMutability": "nonpayable",
      "type": "function"
    },
    {
      "inputs": [
        {
          "internalType": "bytes32",
          "name": "role",
          "type": "bytes32"
        },
        {
          "internalType": "address",
          "name": "account",
          "type": "address"
        }
      ],
      "name": "revokeRole",
      "outputs": [],
      "stateMutability": "nonpayable",
      "type": "function"
    },
    {
      "inputs": [
        {
          "internalType": "address",
          "name": "from",
          "type": "address"
        },
        {
          "internalType": "address",
          "name": "to",
          "type": "address"
        },
        {
          "internalType": "uint256",
          "name": "tokenId",
          "type": "uint256"
        }
      ],
      "name": "safeTransferFrom",
      "outputs": [],
      "stateMutability": "nonpayable",
      "type": "function"
    },
    {
      "inputs": [
        {
          "internalType": "address",
          "name": "from",
          "type": "address"
        },
        {
          "internalType": "address",
          "name": "to",
          "type": "address"
        },
        {
          "internalType": "uint256",
          "name": "tokenId",
          "type": "uint256"
        },
        {
          "internalType": "bytes",
          "name": "_data",
          "type": "bytes"
        }
      ],
      "name": "safeTransferFrom",
      "outputs": [],
      "stateMutability": "nonpayable",
      "type": "function"
    },
    {
      "inputs": [
        {
          "internalType": "address",
          "name": "operator",
          "type": "address"
        },
        {
          "internalType": "bool",
          "name": "approved",
          "type": "bool"
        }
      ],
      "name": "setApprovalForAll",
      "outputs": [],
      "stateMutability": "nonpayable",
      "type": "function"
    },
    {
      "inputs": [
        {
          "internalType": "string",
          "name": "_arweaveAssetsJSON",
          "type": "string"
        }
      ],
      "name": "setArweaveAssetsJSON",
      "outputs": [],
      "stateMutability": "nonpayable",
      "type": "function"
    },
    {
      "inputs": [
        {
          "internalType": "string",
          "name": "_baseURI",
          "type": "string"
        }
      ],
      "name": "setBaseURI",
      "outputs": [],
      "stateMutability": "nonpayable",
      "type": "function"
    },
    {
      "inputs": [
        {
          "internalType": "uint256",
          "name": "_bulkBuyLimit",
          "type": "uint256"
        }
      ],
      "name": "setBulkBuyLimit",
      "outputs": [],
      "stateMutability": "nonpayable",
      "type": "function"
    },
    {
      "inputs": [
        {
          "internalType": "uint256",
          "name": "_maxSupply",
          "type": "uint256"
        }
      ],
      "name": "setMaxSupply",
      "outputs": [],
      "stateMutability": "nonpayable",
      "type": "function"
    },
    {
      "inputs": [
        {
          "internalType": "uint256",
          "name": "newPoppyPenguinPrice",
          "type": "uint256"
        }
      ],
      "name": "setPoppyPenguinPrice",
      "outputs": [],
      "stateMutability": "nonpayable",
      "type": "function"
    },
    {
      "inputs": [
        {
          "internalType": "bytes4",
          "name": "interfaceId",
          "type": "bytes4"
        }
      ],
      "name": "supportsInterface",
      "outputs": [
        {
          "internalType": "bool",
          "name": "",
          "type": "bool"
        }
      ],
      "stateMutability": "view",
      "type": "function"
    },
    {
      "inputs": [],
      "name": "symbol",
      "outputs": [
        {
          "internalType": "string",
          "name": "",
          "type": "string"
        }
      ],
      "stateMutability": "view",
      "type": "function"
    },
    {
      "inputs": [
        {
          "internalType": "uint256",
          "name": "index",
          "type": "uint256"
        }
      ],
      "name": "tokenByIndex",
      "outputs": [
        {
          "internalType": "uint256",
          "name": "",
          "type": "uint256"
        }
      ],
      "stateMutability": "view",
      "type": "function"
    },
    {
      "inputs": [
        {
          "internalType": "address",
          "name": "owner",
          "type": "address"
        },
        {
          "internalType": "uint256",
          "name": "index",
          "type": "uint256"
        }
      ],
      "name": "tokenOfOwnerByIndex",
      "outputs": [
        {
          "internalType": "uint256",
          "name": "",
          "type": "uint256"
        }
      ],
      "stateMutability": "view",
      "type": "function"
    },
    {
      "inputs": [
        {
          "internalType": "uint256",
          "name": "tokenId",
          "type": "uint256"
        }
      ],
      "name": "tokenURI",
      "outputs": [
        {
          "internalType": "string",
          "name": "",
          "type": "string"
        }
      ],
      "stateMutability": "view",
      "type": "function"
    },
    {
      "inputs": [],
      "name": "totalSupply",
      "outputs": [
        {
          "internalType": "uint256",
          "name": "",
          "type": "uint256"
        }
      ],
      "stateMutability": "view",
      "type": "function"
    },
    {
      "inputs": [
        {
          "internalType": "address",
          "name": "from",
          "type": "address"
        },
        {
          "internalType": "address",
          "name": "to",
          "type": "address"
        },
        {
          "internalType": "uint256",
          "name": "tokenId",
          "type": "uint256"
        }
      ],
      "name": "transferFrom",
      "outputs": [],
      "stateMutability": "nonpayable",
      "type": "function"
    },
    {
      "inputs": [],
      "name": "unpause",
      "outputs": [],
      "stateMutability": "nonpayable",
      "type": "function"
    },
    {
      "stateMutability": "payable",
      "type": "receive"
    }
  ],
  "bytecode": "0x60806040523480156200001157600080fd5b50604051620064d0380380620064d083398181016040526101208110156200003857600080fd5b81019080805160405193929190846401000000008211156200005957600080fd5b838201915060208201858111156200007057600080fd5b82518660018202830111640100000000821117156200008e57600080fd5b8083526020830192505050908051906020019080838360005b83811015620000c4578082015181840152602081019050620000a7565b50505050905090810190601f168015620000f25780820380516001836020036101000a031916815260200191505b50604052602001805160405193929190846401000000008211156200011657600080fd5b838201915060208201858111156200012d57600080fd5b82518660018202830111640100000000821117156200014b57600080fd5b8083526020830192505050908051906020019080838360005b838110156200018157808201518184015260208101905062000164565b50505050905090810190601f168015620001af5780820380516001836020036101000a031916815260200191505b5060405260200180516040519392919084640100000000821115620001d357600080fd5b83820191506020820185811115620001ea57600080fd5b82518660018202830111640100000000821117156200020857600080fd5b8083526020830192505050908051906020019080838360005b838110156200023e57808201518184015260208101905062000221565b50505050905090810190601f1680156200026c5780820380516001836020036101000a031916815260200191505b50604052602001805190602001909291908051906020019092919080519060200190929190805190602001909291908051906020019092919080516040519392919084640100000000821115620002c257600080fd5b83820191506020820185811115620002d957600080fd5b8251866001820283011164010000000082111715620002f757600080fd5b8083526020830192505050908051906020019080838360005b838110156200032d57808201518184015260208101905062000310565b50505050905090810190601f1680156200035b5780820380516001836020036101000a031916815260200191505b5060405250505088888882826200037f6301ffc9a760e01b6200057f60201b60201c565b81600790805190602001906200039792919062000ef1565b508060089080519060200190620003b092919062000ef1565b50620003c96380ac58cd60e01b6200057f60201b60201c565b620003e1635b5e139f60e01b6200057f60201b60201c565b620003f963780e9d6360e01b6200057f60201b60201c565b50506000600b60006101000a81548160ff0219169083151502179055506200043a6000801b6200042e6200068860201b60201c565b6200069060201b60201c565b6200047b7f9f2df0fed2c77648de5860a4cc508cd0818c85b8b8a1ab4ceeef8d981c8956a66200046f6200068860201b60201c565b6200069060201b60201c565b620004bc7f65d7a28e3265b37a6474929f336521b332c1681b933f6cb9f3376673440d862a620004b06200068860201b60201c565b6200069060201b60201c565b620004cd81620006a660201b60201c565b5050506001600d8190555085600f60006101000a81548173ffffffffffffffffffffffffffffffffffffffff021916908373ffffffffffffffffffffffffffffffffffffffff16021790555083601081905550826011819055508160128190555080601390805190602001906200054692919062000ef1565b506200055e600e620006c260201b6200334d1760201c565b5062000570856200079b60201b60201c565b50505050505050505062000f97565b63ffffffff60e01b817bffffffffffffffffffffffffffffffffffffffffffffffffffffffff191614156200061c576040517f08c379a000000000000000000000000000000000000000000000000000000000815260040180806020018281038252601c8152602001807f4552433136353a20696e76616c696420696e746572666163652069640000000081525060200191505060405180910390fd5b6001806000837bffffffffffffffffffffffffffffffffffffffffffffffffffffffff19167bffffffffffffffffffffffffffffffffffffffffffffffffffffffff1916815260200190815260200160002060006101000a81548160ff02191690831515021790555050565b600033905090565b620006a282826200083b60201b60201c565b5050565b80600a9080519060200190620006be92919062000ef1565b5050565b600033325a8460000154424343406064430340604051602001808973ffffffffffffffffffffffffffffffffffffffff1660601b81526014018873ffffffffffffffffffffffffffffffffffffffff1660601b81526014018781526020018681526020018581526020018481526020018381526020018281526020019850505050505050505060405160208183030381529060405280519060200120604051602001808281526020019150506040516020818303038152906040528051906020012060001c826000018190555081600001549050919050565b60005b818110156200083757620007be600c620008de60201b620034261760201c565b6000620007d7600c620008f460201b6200343c1760201c565b9050620007f0600e620006c260201b6200334d1760201c565b6014600083815260200190815260200160002081905550620008286200081b6200068860201b60201c565b826200090260201b60201c565b5080806001019150506200079e565b5050565b620008698160008085815260200190815260200160002060000162000b1660201b6200344a1790919060201c565b15620008da576200087f6200068860201b60201c565b73ffffffffffffffffffffffffffffffffffffffff168173ffffffffffffffffffffffffffffffffffffffff16837f2f8788117e7eff1d82e926ec794901d17c78024a50270940304540a733656f0d60405160405180910390a45b5050565b6001816000016000828254019250508190555050565b600081600001549050919050565b600073ffffffffffffffffffffffffffffffffffffffff168273ffffffffffffffffffffffffffffffffffffffff161415620009a6576040517f08c379a00000000000000000000000000000000000000000000000000000000081526004018080602001828103825260208152602001807f4552433732313a206d696e7420746f20746865207a65726f206164647265737381525060200191505060405180910390fd5b620009b78162000b4e60201b60201c565b1562000a2b576040517f08c379a000000000000000000000000000000000000000000000000000000000815260040180806020018281038252601c8152602001807f4552433732313a20746f6b656e20616c7265616479206d696e7465640000000081525060200191505060405180910390fd5b62000a3f6000838362000b7260201b60201c565b62000a9781600260008573ffffffffffffffffffffffffffffffffffffffff1673ffffffffffffffffffffffffffffffffffffffff16815260200190815260200160002062000c1360201b6200347a1790919060201c565b5062000ab58183600362000c3560201b62003494179092919060201c565b50808273ffffffffffffffffffffffffffffffffffffffff16600073ffffffffffffffffffffffffffffffffffffffff167fddf252ad1be2c89b69c2b068fc378daa952ba7f163c4a11628f55a4df523b3ef60405160405180910390a45050565b600062000b46836000018373ffffffffffffffffffffffffffffffffffffffff1660001b62000c7260201b60201c565b905092915050565b600062000b6b82600362000cec60201b620034c91790919060201c565b9050919050565b62000b8a83838362000d0e60201b620034e31760201c565b807f8c0bdd7bca83c4e0c810cbecf44bc544a9dc0b9f265664e31ce0ce85f07a052b60146000848152602001908152602001600020546014600085815260200190815260200160002054600060026040518085815260200184815260200183815260200182600281111562000bfb57fe5b815260200194505050505060405180910390a2505050565b600062000c2d836000018360001b62000c7260201b60201c565b905092915050565b600062000c69846000018460001b8473ffffffffffffffffffffffffffffffffffffffff1660001b62000d2b60201b60201c565b90509392505050565b600062000c86838362000e0a60201b60201c565b62000ce157826000018290806001815401808255809150506001900390600052602060002001600090919091909150558260000180549050836001016000848152602001908152602001600020819055506001905062000ce6565b600090505b92915050565b600062000d06836000018360001b62000e2d60201b60201c565b905092915050565b62000d2683838362000e5060201b620034f31760201c565b505050565b600080846001016000858152602001908152602001600020549050600081141562000dd45784600001604051806040016040528086815260200185815250908060018154018082558091505060019003906000526020600020906002020160009091909190915060008201518160000155602082015181600101555050846000018054905085600101600086815260200190815260200160002081905550600191505062000e03565b8285600001600183038154811062000de857fe5b90600052602060002090600202016001018190555060009150505b9392505050565b600080836001016000848152602001908152602001600020541415905092915050565b600080836001016000848152602001908152602001600020541415905092915050565b62000e6883838362000ed560201b620035611760201c565b62000e7862000eda60201b60201c565b1562000ed0576040517f08c379a000000000000000000000000000000000000000000000000000000000815260040180806020018281038252602b815260200180620064a5602b913960400191505060405180910390fd5b505050565b505050565b6000600b60009054906101000a900460ff16905090565b828054600181600116156101000203166002900490600052602060002090601f016020900481019282601f1062000f3457805160ff191683800117855562000f65565b8280016001018555821562000f65579182015b8281111562000f6457825182559160200191906001019062000f47565b5b50905062000f74919062000f78565b5090565b5b8082111562000f9357600081600090555060010162000f79565b5090565b6154fe8062000fa76000396000f3fe6080604052600436106102815760003560e01c80636a6278421161014f578063a49bccca116100c1578063d5a83d3e1161007a578063d5a83d3e1461113e578063d5abeb011461116c578063e63ab1e914611197578063e985e9c5146111c2578063f528a62714611249578063f84ddf0b146112d957610290565b8063a49bccca14610e78578063b88d4fde14610ea3578063c87b56dd14610fb5578063ca15c87314611069578063d5391393146110b8578063d547741f146110e357610290565b80638456cb59116101135780638456cb5914610c695780639010d07c14610c8057806391d1485414610cef57806395d89b4114610d60578063a217fddf14610df0578063a22cb46514610e1b57610290565b80636a62784214610abd5780636c0360eb14610b0e5780636f8b44b014610b9e57806370a0823114610bd957806375b0a91114610c3e57610290565b806336568abe116101f357806355f804b3116101ac57806355f804b31461081157806356b1b300146108d95780635c975abb146109a15780635e468dfd146109ce5780636352211e14610a095780636a5be68614610a6e57610290565b806336568abe1461065f5780633f4ba83a146106ba57806342842e0e146106d157806342966c681461074c5780634f6ccce71461078757806351cb0114146107d657610290565b806318160ddd1161024557806318160ddd1461045f5780632131c68c1461048a57806323b872dd146104cb578063248a9ca3146105465780632f2ff15d146105955780632f745c59146105f057610290565b806301ffc9a71461029557806306fdde0314610305578063081812fc14610395578063095ea7b3146103fa5780631249c58b1461045557610290565b366102905761028e611304565b005b600080fd5b3480156102a157600080fd5b506102ed600480360360208110156102b857600080fd5b8101908080357bffffffffffffffffffffffffffffffffffffffffffffffffffffffff19169060200190929190505050611703565b60405180821515815260200191505060405180910390f35b34801561031157600080fd5b5061031a61176b565b6040518080602001828103825283818151815260200191508051906020019080838360005b8381101561035a57808201518184015260208101905061033f565b50505050905090810190601f1680156103875780820380516001836020036101000a031916815260200191505b509250505060405180910390f35b3480156103a157600080fd5b506103ce600480360360208110156103b857600080fd5b810190808035906020019092919050505061180d565b604051808273ffffffffffffffffffffffffffffffffffffffff16815260200191505060405180910390f35b34801561040657600080fd5b506104536004803603604081101561041d57600080fd5b81019080803573ffffffffffffffffffffffffffffffffffffffff169060200190929190803590602001909291905050506118a8565b005b61045d611304565b005b34801561046b57600080fd5b506104746119ec565b6040518082815260200191505060405180910390f35b34801561049657600080fd5b5061049f6119fd565b604051808273ffffffffffffffffffffffffffffffffffffffff16815260200191505060405180910390f35b3480156104d757600080fd5b50610544600480360360608110156104ee57600080fd5b81019080803573ffffffffffffffffffffffffffffffffffffffff169060200190929190803573ffffffffffffffffffffffffffffffffffffffff16906020019092919080359060200190929190505050611a23565b005b34801561055257600080fd5b5061057f6004803603602081101561056957600080fd5b8101908080359060200190929190505050611a99565b6040518082815260200191505060405180910390f35b3480156105a157600080fd5b506105ee600480360360408110156105b857600080fd5b8101908080359060200190929190803573ffffffffffffffffffffffffffffffffffffffff169060200190929190505050611ab8565b005b3480156105fc57600080fd5b506106496004803603604081101561061357600080fd5b81019080803573ffffffffffffffffffffffffffffffffffffffff16906020019092919080359060200190929190505050611b41565b6040518082815260200191505060405180910390f35b34801561066b57600080fd5b506106b86004803603604081101561068257600080fd5b8101908080359060200190929190803573ffffffffffffffffffffffffffffffffffffffff169060200190929190505050611b9c565b005b3480156106c657600080fd5b506106cf611c35565b005b3480156106dd57600080fd5b5061074a600480360360608110156106f457600080fd5b81019080803573ffffffffffffffffffffffffffffffffffffffff169060200190929190803573ffffffffffffffffffffffffffffffffffffffff16906020019092919080359060200190929190505050611cc5565b005b34801561075857600080fd5b506107856004803603602081101561076f57600080fd5b8101908080359060200190929190505050611ce5565b005b34801561079357600080fd5b506107c0600480360360208110156107aa57600080fd5b8101908080359060200190929190505050611d57565b6040518082815260200191505060405180910390f35b3480156107e257600080fd5b5061080f600480360360208110156107f957600080fd5b8101908080359060200190929190505050611d7a565b005b34801561081d57600080fd5b506108d76004803603602081101561083457600080fd5b810190808035906020019064010000000081111561085157600080fd5b82018360208201111561086357600080fd5b8035906020019184600183028401116401000000008311171561088557600080fd5b91908080601f016020809104026020016040519081016040528093929190818152602001838380828437600081840152601f19601f820116905080830192505050505050509192919290505050611e7e565b005b3480156108e557600080fd5b5061099f600480360360208110156108fc57600080fd5b810190808035906020019064010000000081111561091957600080fd5b82018360208201111561092b57600080fd5b8035906020019184600183028401116401000000008311171561094d57600080fd5b91908080601f016020809104026020016040519081016040528093929190818152602001838380828437600081840152601f19601f820116905080830192505050505050509192919290505050611fe9565b005b3480156109ad57600080fd5b506109b6612162565b60405180821515815260200191505060405180910390f35b3480156109da57600080fd5b50610a07600480360360208110156109f157600080fd5b8101908080359060200190929190505050612179565b005b348015610a1557600080fd5b50610a4260048036036020811015610a2c57600080fd5b810190808035906020019092919050505061227d565b604051808273ffffffffffffffffffffffffffffffffffffffff16815260200191505060405180910390f35b348015610a7a57600080fd5b50610aa760048036036020811015610a9157600080fd5b81019080803590602001909291905050506122b4565b6040518082815260200191505060405180910390f35b348015610ac957600080fd5b50610b0c60048036036020811015610ae057600080fd5b81019080803573ffffffffffffffffffffffffffffffffffffffff1690602001909291905050506122d1565b005b348015610b1a57600080fd5b50610b2361233f565b6040518080602001828103825283818151815260200191508051906020019080838360005b83811015610b63578082015181840152602081019050610b48565b50505050905090810190601f168015610b905780820380516001836020036101000a031916815260200191505b509250505060405180910390f35b348015610baa57600080fd5b50610bd760048036036020811015610bc157600080fd5b81019080803590602001909291905050506123e1565b005b348015610be557600080fd5b50610c2860048036036020811015610bfc57600080fd5b81019080803573ffffffffffffffffffffffffffffffffffffffff1690602001909291905050506124e7565b6040518082815260200191505060405180910390f35b348015610c4a57600080fd5b50610c536125bc565b6040518082815260200191505060405180910390f35b348015610c7557600080fd5b50610c7e6125c2565b005b348015610c8c57600080fd5b50610cc360048036036040811015610ca357600080fd5b810190808035906020019092919080359060200190929190505050612652565b604051808273ffffffffffffffffffffffffffffffffffffffff16815260200191505060405180910390f35b348015610cfb57600080fd5b50610d4860048036036040811015610d1257600080fd5b8101908080359060200190929190803573ffffffffffffffffffffffffffffffffffffffff169060200190929190505050612683565b60405180821515815260200191505060405180910390f35b348015610d6c57600080fd5b50610d756126b4565b6040518080602001828103825283818151815260200191508051906020019080838360005b83811015610db5578082015181840152602081019050610d9a565b50505050905090810190601f168015610de25780820380516001836020036101000a031916815260200191505b509250505060405180910390f35b348015610dfc57600080fd5b50610e05612756565b6040518082815260200191505060405180910390f35b348015610e2757600080fd5b50610e7660048036036040811015610e3e57600080fd5b81019080803573ffffffffffffffffffffffffffffffffffffffff16906020019092919080351515906020019092919050505061275d565b005b348015610e8457600080fd5b50610e8d612913565b6040518082815260200191505060405180910390f35b348015610eaf57600080fd5b50610fb360048036036080811015610ec657600080fd5b81019080803573ffffffffffffffffffffffffffffffffffffffff169060200190929190803573ffffffffffffffffffffffffffffffffffffffff1690602001909291908035906020019092919080359060200190640100000000811115610f2d57600080fd5b820183602082011115610f3f57600080fd5b80359060200191846001830284011164010000000083111715610f6157600080fd5b91908080601f016020809104026020016040519081016040528093929190818152602001838380828437600081840152601f19601f820116905080830192505050505050509192919290505050612919565b005b348015610fc157600080fd5b50610fee60048036036020811015610fd857600080fd5b8101908080359060200190929190505050612991565b6040518080602001828103825283818151815260200191508051906020019080838360005b8381101561102e578082015181840152602081019050611013565b50505050905090810190601f16801561105b5780820380516001836020036101000a031916815260200191505b509250505060405180910390f35b34801561107557600080fd5b506110a26004803603602081101561108c57600080fd5b8101908080359060200190929190505050612c62565b6040518082815260200191505060405180910390f35b3480156110c457600080fd5b506110cd612c88565b6040518082815260200191505060405180910390f35b3480156110ef57600080fd5b5061113c6004803603604081101561110657600080fd5b8101908080359060200190929190803573ffffffffffffffffffffffffffffffffffffffff169060200190929190505050612cac565b005b61116a6004803603602081101561115457600080fd5b8101908080359060200190929190505050612d35565b005b34801561117857600080fd5b506111816131e0565b6040518082815260200191505060405180910390f35b3480156111a357600080fd5b506111ac6131e6565b6040518082815260200191505060405180910390f35b3480156111ce57600080fd5b50611231600480360360408110156111e557600080fd5b81019080803573ffffffffffffffffffffffffffffffffffffffff169060200190929190803573ffffffffffffffffffffffffffffffffffffffff16906020019092919050505061320a565b60405180821515815260200191505060405180910390f35b34801561125557600080fd5b5061125e61329e565b6040518080602001828103825283818151815260200191508051906020019080838360005b8381101561129e578082015181840152602081019050611283565b50505050905090810190601f1680156112cb5780820380516001836020036101000a031916815260200191505b509250505060405180910390f35b3480156112e557600080fd5b506112ee61333c565b6040518082815260200191505060405180910390f35b6002600d54141561137d576040517f08c379a000000000000000000000000000000000000000000000000000000000815260040180806020018281038252601f8152602001807f5265656e7472616e637947756172643a207265656e7472616e742063616c6c0081525060200191505060405180910390fd5b6002600d81905550601154611392600c61343c565b10611405576040517f08c379a00000000000000000000000000000000000000000000000000000000081526004018080602001828103825260158152602001807f546f74616c20737570706c79207265616368656421000000000000000000000081525060200191505060405180910390fd5b61140f600c613426565b600061141b600c61343c565b9050611427600e61334d565b60146000838152602001908152602001600020819055506000600f60009054906101000a900473ffffffffffffffffffffffffffffffffffffffff1673ffffffffffffffffffffffffffffffffffffffff1660105460405180600001905060006040518083038185875af1925050503d80600081146114c2576040519150601f19603f3d011682016040523d82523d6000602084013e6114c7565b606091505b5050905080611521576040517f08c379a000000000000000000000000000000000000000000000000000000000815260040180806020018281038252603a81526020018061519f603a913960400191505060405180910390fd5b60006115386010543461356690919063ffffffff16565b9050600081111561162857600061154d6135e9565b73ffffffffffffffffffffffffffffffffffffffff168260405180600001905060006040518083038185875af1925050503d80600081146115aa576040519150601f19603f3d011682016040523d82523d6000602084013e6115af565b606091505b5050905080611626576040517f08c379a00000000000000000000000000000000000000000000000000000000081526004018080602001828103825260188152602001807f4661696c656420746f2072657475726e206578636573732e000000000000000081525060200191505060405180910390fd5b505b6116396116336135e9565b846135f1565b827f5f7666687319b40936f33c188908d86aea154abd3f4127b4fa0a3f04f303c7da60146000868152602001908152602001600020546040518082815260200191505060405180910390a2827f8c0bdd7bca83c4e0c810cbecf44bc544a9dc0b9f265664e31ce0ce85f07a052b600060146000878152602001908152602001600020546010546000604051808581526020018481526020018381526020018260028111156116e357fe5b815260200194505050505060405180910390a25050506001600d81905550565b600060016000837bffffffffffffffffffffffffffffffffffffffffffffffffffffffff19167bffffffffffffffffffffffffffffffffffffffffffffffffffffffff1916815260200190815260200160002060009054906101000a900460ff169050919050565b606060078054600181600116156101000203166002900480601f0160208091040260200160405190810160405280929190818152602001828054600181600116156101000203166002900480156118035780601f106117d857610100808354040283529160200191611803565b820191906000526020600020905b8154815290600101906020018083116117e657829003601f168201915b5050505050905090565b6000611818826137e5565b61186d576040517f08c379a000000000000000000000000000000000000000000000000000000000815260040180806020018281038252602c815260200180615329602c913960400191505060405180910390fd5b6005600083815260200190815260200160002060009054906101000a900473ffffffffffffffffffffffffffffffffffffffff169050919050565b60006118b38261227d565b90508073ffffffffffffffffffffffffffffffffffffffff168373ffffffffffffffffffffffffffffffffffffffff16141561193a576040517f08c379a00000000000000000000000000000000000000000000000000000000081526004018080602001828103825260218152602001806153ad6021913960400191505060405180910390fd5b8073ffffffffffffffffffffffffffffffffffffffff166119596135e9565b73ffffffffffffffffffffffffffffffffffffffff1614806119885750611987816119826135e9565b61320a565b5b6119dd576040517f08c379a000000000000000000000000000000000000000000000000000000000815260040180806020018281038252603881526020018061525b6038913960400191505060405180910390fd5b6119e78383613802565b505050565b60006119f860036138bb565b905090565b600f60009054906101000a900473ffffffffffffffffffffffffffffffffffffffff1681565b611a34611a2e6135e9565b826138d0565b611a89576040517f08c379a00000000000000000000000000000000000000000000000000000000081526004018080602001828103825260318152602001806153f96031913960400191505060405180910390fd5b611a948383836139c4565b505050565b6000806000838152602001908152602001600020600201549050919050565b611ade60008084815260200190815260200160002060020154611ad96135e9565b612683565b611b33576040517f08c379a000000000000000000000000000000000000000000000000000000000815260040180806020018281038252602f8152602001806150a2602f913960400191505060405180910390fd5b611b3d8282613c07565b5050565b6000611b9482600260008673ffffffffffffffffffffffffffffffffffffffff1673ffffffffffffffffffffffffffffffffffffffff168152602001908152602001600020613c9a90919063ffffffff16565b905092915050565b611ba46135e9565b73ffffffffffffffffffffffffffffffffffffffff168173ffffffffffffffffffffffffffffffffffffffff1614611c27576040517f08c379a000000000000000000000000000000000000000000000000000000000815260040180806020018281038252602f81526020018061549a602f913960400191505060405180910390fd5b611c318282613cb4565b5050565b611c667f65d7a28e3265b37a6474929f336521b332c1681b933f6cb9f3376673440d862a611c616135e9565b612683565b611cbb576040517f08c379a000000000000000000000000000000000000000000000000000000000815260040180806020018281038252604081526020018061545a6040913960400191505060405180910390fd5b611cc3613d47565b565b611ce083838360405180602001604052806000815250612919565b505050565b611cf6611cf06135e9565b826138d0565b611d4b576040517f08c379a000000000000000000000000000000000000000000000000000000000815260040180806020018281038252603081526020018061542a6030913960400191505060405180910390fd5b611d5481613e32565b50565b600080611d6e836003613f6c90919063ffffffff16565b50905080915050919050565b600f60009054906101000a900473ffffffffffffffffffffffffffffffffffffffff1673ffffffffffffffffffffffffffffffffffffffff163373ffffffffffffffffffffffffffffffffffffffff1614611e3d576040517f08c379a00000000000000000000000000000000000000000000000000000000081526004018080602001828103825260178152602001807f4e6f742043616c6c65642066726f6d207468652064616f00000000000000000081525060200191505060405180910390fd5b806010819055507feabbded81d50f6019ed079bcee1150aabc9c0d3199cb6d875b7f321578deca34816040518082815260200191505060405180910390a150565b600f60009054906101000a900473ffffffffffffffffffffffffffffffffffffffff1673ffffffffffffffffffffffffffffffffffffffff163373ffffffffffffffffffffffffffffffffffffffff1614611f41576040517f08c379a00000000000000000000000000000000000000000000000000000000081526004018080602001828103825260178152602001807f4e6f742043616c6c65642066726f6d207468652064616f00000000000000000081525060200191505060405180910390fd5b611f4a81613f98565b7f5411e8ebf1636d9e83d5fc4900bf80cbac82e8790da2a4c94db4895e889eedf6816040518080602001828103825283818151815260200191508051906020019080838360005b83811015611fac578082015181840152602081019050611f91565b50505050905090810190601f168015611fd95780820380516001836020036101000a031916815260200191505b509250505060405180910390a150565b600f60009054906101000a900473ffffffffffffffffffffffffffffffffffffffff1673ffffffffffffffffffffffffffffffffffffffff163373ffffffffffffffffffffffffffffffffffffffff16146120ac576040517f08c379a00000000000000000000000000000000000000000000000000000000081526004018080602001828103825260178152602001807f4e6f742043616c6c65642066726f6d207468652064616f00000000000000000081525060200191505060405180910390fd5b80601390805190602001906120c2929190614f6f565b507fe1ea6e62a0b360acc613f2021ab3c5d36492a25bce6d0d9940a6b497c87363df816040518080602001828103825283818151815260200191508051906020019080838360005b8381101561212557808201518184015260208101905061210a565b50505050905090810190601f1680156121525780820380516001836020036101000a031916815260200191505b509250505060405180910390a150565b6000600b60009054906101000a900460ff16905090565b600f60009054906101000a900473ffffffffffffffffffffffffffffffffffffffff1673ffffffffffffffffffffffffffffffffffffffff163373ffffffffffffffffffffffffffffffffffffffff161461223c576040517f08c379a00000000000000000000000000000000000000000000000000000000081526004018080602001828103825260178152602001807f4e6f742043616c6c65642066726f6d207468652064616f00000000000000000081525060200191505060405180910390fd5b806012819055507fa0e0113404674c6f545b966e8ec54db3066a6c720a0054f0bc4b0c900cfff243816040518082815260200191505060405180910390a150565b60006122ad826040518060600160405280602981526020016152bd602991396003613fb29092919063ffffffff16565b9050919050565b600060146000838152602001908152602001600020549050919050565b6040517f08c379a00000000000000000000000000000000000000000000000000000000081526004018080602001828103825260178152602001807f53686f756c64206e6f74207573652074686973206f6e6500000000000000000081525060200191505060405180910390fd5b6060600a8054600181600116156101000203166002900480601f0160208091040260200160405190810160405280929190818152602001828054600181600116156101000203166002900480156123d75780601f106123ac576101008083540402835291602001916123d7565b820191906000526020600020905b8154815290600101906020018083116123ba57829003601f168201915b5050505050905090565b600f60009054906101000a900473ffffffffffffffffffffffffffffffffffffffff1673ffffffffffffffffffffffffffffffffffffffff163373ffffffffffffffffffffffffffffffffffffffff16146124a4576040517f08c379a00000000000000000000000000000000000000000000000000000000081526004018080602001828103825260178152602001807f4e6f742043616c6c65642066726f6d207468652064616f00000000000000000081525060200191505060405180910390fd5b806011819055507f28a10a2e0b5582da7164754cb994f6214b8af6aa7f7e003305fbc09e7106c5136011546040518082815260200191505060405180910390a150565b60008073ffffffffffffffffffffffffffffffffffffffff168273ffffffffffffffffffffffffffffffffffffffff16141561256e576040517f08c379a000000000000000000000000000000000000000000000000000000000815260040180806020018281038252602a815260200180615293602a913960400191505060405180910390fd5b6125b5600260008473ffffffffffffffffffffffffffffffffffffffff1673ffffffffffffffffffffffffffffffffffffffff168152602001908152602001600020613fd1565b9050919050565b60105481565b6125f37f65d7a28e3265b37a6474929f336521b332c1681b933f6cb9f3376673440d862a6125ee6135e9565b612683565b612648576040517f08c379a000000000000000000000000000000000000000000000000000000000815260040180806020018281038252603e81526020018061513d603e913960400191505060405180910390fd5b612650613fe6565b565b600061267b826000808681526020019081526020016000206000016140d290919063ffffffff16565b905092915050565b60006126ac826000808681526020019081526020016000206000016140ec90919063ffffffff16565b905092915050565b606060088054600181600116156101000203166002900480601f01602080910402602001604051908101604052809291908181526020018280546001816001161561010002031660029004801561274c5780601f106127215761010080835404028352916020019161274c565b820191906000526020600020905b81548152906001019060200180831161272f57829003601f168201915b5050505050905090565b6000801b81565b6127656135e9565b73ffffffffffffffffffffffffffffffffffffffff168273ffffffffffffffffffffffffffffffffffffffff161415612806576040517f08c379a00000000000000000000000000000000000000000000000000000000081526004018080602001828103825260198152602001807f4552433732313a20617070726f766520746f2063616c6c65720000000000000081525060200191505060405180910390fd5b80600660006128136135e9565b73ffffffffffffffffffffffffffffffffffffffff1673ffffffffffffffffffffffffffffffffffffffff16815260200190815260200160002060008473ffffffffffffffffffffffffffffffffffffffff1673ffffffffffffffffffffffffffffffffffffffff16815260200190815260200160002060006101000a81548160ff0219169083151502179055508173ffffffffffffffffffffffffffffffffffffffff166128c06135e9565b73ffffffffffffffffffffffffffffffffffffffff167f17307eab39ab6107e8899845ad3d59bd9653f200f220920489ca2b5937696c318360405180821515815260200191505060405180910390a35050565b60125481565b61292a6129246135e9565b836138d0565b61297f576040517f08c379a00000000000000000000000000000000000000000000000000000000081526004018080602001828103825260318152602001806153f96031913960400191505060405180910390fd5b61298b8484848461411c565b50505050565b606061299c826137e5565b6129f1576040517f08c379a000000000000000000000000000000000000000000000000000000000815260040180806020018281038252602f81526020018061537e602f913960400191505060405180910390fd5b6060600960008481526020019081526020016000208054600181600116156101000203166002900480601f016020809104026020016040519081016040528092919081815260200182805460018160011615610100020316600290048015612a9a5780601f10612a6f57610100808354040283529160200191612a9a565b820191906000526020600020905b815481529060010190602001808311612a7d57829003601f168201915b505050505090506060612aab61233f565b9050600081511415612ac1578192505050612c5d565b600082511115612b925780826040516020018083805190602001908083835b60208310612b035780518252602082019150602081019050602083039250612ae0565b6001836020036101000a03801982511681845116808217855250505050505090500182805190602001908083835b60208310612b545780518252602082019150602081019050602083039250612b31565b6001836020036101000a0380198251168184511680821785525050505050509050019250505060405160208183030381529060405292505050612c5d565b80612b9c8561418e565b6040516020018083805190602001908083835b60208310612bd25780518252602082019150602081019050602083039250612baf565b6001836020036101000a03801982511681845116808217855250505050505090500182805190602001908083835b60208310612c235780518252602082019150602081019050602083039250612c00565b6001836020036101000a03801982511681845116808217855250505050505090500192505050604051602081830303815290604052925050505b919050565b6000612c816000808481526020019081526020016000206000016142d5565b9050919050565b7f9f2df0fed2c77648de5860a4cc508cd0818c85b8b8a1ab4ceeef8d981c8956a681565b612cd260008084815260200190815260200160002060020154612ccd6135e9565b612683565b612d27576040517f08c379a000000000000000000000000000000000000000000000000000000000815260040180806020018281038252603081526020018061522b6030913960400191505060405180910390fd5b612d318282613cb4565b5050565b6002600d541415612dae576040517f08c379a000000000000000000000000000000000000000000000000000000000815260040180806020018281038252601f8152602001807f5265656e7472616e637947756172643a207265656e7472616e742063616c6c0081525060200191505060405180910390fd5b6002600d81905550601254811115612e11576040517f08c379a000000000000000000000000000000000000000000000000000000000815260040180806020018281038252602b8152602001806153ce602b913960400191505060405180910390fd5b601154612e3082612e22600c61343c565b6142ea90919063ffffffff16565b1115612ea4576040517f08c379a00000000000000000000000000000000000000000000000000000000081526004018080602001828103825260148152602001807f546f74616c20737570706c79207265616368656400000000000000000000000081525060200191505060405180910390fd5b6000600f60009054906101000a900473ffffffffffffffffffffffffffffffffffffffff1673ffffffffffffffffffffffffffffffffffffffff16612ef48360105461437290919063ffffffff16565b60405180600001905060006040518083038185875af1925050503d8060008114612f3a576040519150601f19603f3d011682016040523d82523d6000602084013e612f3f565b606091505b5050905080612f99576040517f08c379a000000000000000000000000000000000000000000000000000000000815260040180806020018281038252603a8152602001806150d1603a913960400191505060405180910390fd5b6000612fc2612fb38460105461437290919063ffffffff16565b3461356690919063ffffffff16565b905060008111156130b2576000612fd76135e9565b73ffffffffffffffffffffffffffffffffffffffff168260405180600001905060006040518083038185875af1925050503d8060008114613034576040519150601f19603f3d011682016040523d82523d6000602084013e613039565b606091505b50509050806130b0576040517f08c379a00000000000000000000000000000000000000000000000000000000081526004018080602001828103825260188152602001807f4661696c656420746f2072657475726e206578636573732e000000000000000081525060200191505060405180910390fd5b505b60005b838110156131d2576130c7600c613426565b60006130d3600c61343c565b90506130df600e61334d565b60146000838152602001908152602001600020819055506131076131016135e9565b826135f1565b807f5f7666687319b40936f33c188908d86aea154abd3f4127b4fa0a3f04f303c7da60146000848152602001908152602001600020546040518082815260200191505060405180910390a2807f8c0bdd7bca83c4e0c810cbecf44bc544a9dc0b9f265664e31ce0ce85f07a052b600060146000858152602001908152602001600020546010546000604051808581526020018481526020018381526020018260028111156131b157fe5b815260200194505050505060405180910390a25080806001019150506130b5565b5050506001600d8190555050565b60115481565b7f65d7a28e3265b37a6474929f336521b332c1681b933f6cb9f3376673440d862a81565b6000600660008473ffffffffffffffffffffffffffffffffffffffff1673ffffffffffffffffffffffffffffffffffffffff16815260200190815260200160002060008373ffffffffffffffffffffffffffffffffffffffff1673ffffffffffffffffffffffffffffffffffffffff16815260200190815260200160002060009054906101000a900460ff16905092915050565b60138054600181600116156101000203166002900480601f0160208091040260200160405190810160405280929190818152602001828054600181600116156101000203166002900480156133345780601f1061330957610100808354040283529160200191613334565b820191906000526020600020905b81548152906001019060200180831161331757829003601f168201915b505050505081565b6000613348600c61343c565b905090565b600033325a8460000154424343406064430340604051602001808973ffffffffffffffffffffffffffffffffffffffff1660601b81526014018873ffffffffffffffffffffffffffffffffffffffff1660601b81526014018781526020018681526020018581526020018481526020018381526020018281526020019850505050505050505060405160208183030381529060405280519060200120604051602001808281526020019150506040516020818303038152906040528051906020012060001c826000018190555081600001549050919050565b6001816000016000828254019250508190555050565b600081600001549050919050565b6000613472836000018373ffffffffffffffffffffffffffffffffffffffff1660001b6143f8565b905092915050565b600061348c836000018360001b6143f8565b905092915050565b60006134c0846000018460001b8473ffffffffffffffffffffffffffffffffffffffff1660001b614468565b90509392505050565b60006134db836000018360001b614544565b905092915050565b6134ee8383836134f3565b505050565b6134fe838383613561565b613506612162565b1561355c576040517f08c379a000000000000000000000000000000000000000000000000000000000815260040180806020018281038252602b815260200180615077602b913960400191505060405180910390fd5b505050565b505050565b6000828211156135de576040517f08c379a000000000000000000000000000000000000000000000000000000000815260040180806020018281038252601e8152602001807f536166654d6174683a207375627472616374696f6e206f766572666c6f77000081525060200191505060405180910390fd5b818303905092915050565b600033905090565b600073ffffffffffffffffffffffffffffffffffffffff168273ffffffffffffffffffffffffffffffffffffffff161415613694576040517f08c379a00000000000000000000000000000000000000000000000000000000081526004018080602001828103825260208152602001807f4552433732313a206d696e7420746f20746865207a65726f206164647265737381525060200191505060405180910390fd5b61369d816137e5565b15613710576040517f08c379a000000000000000000000000000000000000000000000000000000000815260040180806020018281038252601c8152602001807f4552433732313a20746f6b656e20616c7265616479206d696e7465640000000081525060200191505060405180910390fd5b61371c60008383614567565b61376d81600260008573ffffffffffffffffffffffffffffffffffffffff1673ffffffffffffffffffffffffffffffffffffffff16815260200190815260200160002061347a90919063ffffffff16565b50613784818360036134949092919063ffffffff16565b50808273ffffffffffffffffffffffffffffffffffffffff16600073ffffffffffffffffffffffffffffffffffffffff167fddf252ad1be2c89b69c2b068fc378daa952ba7f163c4a11628f55a4df523b3ef60405160405180910390a45050565b60006137fb8260036134c990919063ffffffff16565b9050919050565b816005600083815260200190815260200160002060006101000a81548173ffffffffffffffffffffffffffffffffffffffff021916908373ffffffffffffffffffffffffffffffffffffffff160217905550808273ffffffffffffffffffffffffffffffffffffffff166138758361227d565b73ffffffffffffffffffffffffffffffffffffffff167f8c5be1e5ebec7d5bd14f71427d1e84f3dd0314c0f7b2291e5b200ac8c7c3b92560405160405180910390a45050565b60006138c9826000016145fa565b9050919050565b60006138db826137e5565b613930576040517f08c379a000000000000000000000000000000000000000000000000000000000815260040180806020018281038252602c8152602001806151ff602c913960400191505060405180910390fd5b600061393b8361227d565b90508073ffffffffffffffffffffffffffffffffffffffff168473ffffffffffffffffffffffffffffffffffffffff1614806139aa57508373ffffffffffffffffffffffffffffffffffffffff166139928461180d565b73ffffffffffffffffffffffffffffffffffffffff16145b806139bb57506139ba818561320a565b5b91505092915050565b8273ffffffffffffffffffffffffffffffffffffffff166139e48261227d565b73ffffffffffffffffffffffffffffffffffffffff1614613a50576040517f08c379a00000000000000000000000000000000000000000000000000000000081526004018080602001828103825260298152602001806153556029913960400191505060405180910390fd5b600073ffffffffffffffffffffffffffffffffffffffff168273ffffffffffffffffffffffffffffffffffffffff161415613ad6576040517f08c379a000000000000000000000000000000000000000000000000000000000815260040180806020018281038252602481526020018061517b6024913960400191505060405180910390fd5b613ae1838383614567565b613aec600082613802565b613b3d81600260008673ffffffffffffffffffffffffffffffffffffffff1673ffffffffffffffffffffffffffffffffffffffff16815260200190815260200160002061460b90919063ffffffff16565b50613b8f81600260008573ffffffffffffffffffffffffffffffffffffffff1673ffffffffffffffffffffffffffffffffffffffff16815260200190815260200160002061347a90919063ffffffff16565b50613ba6818360036134949092919063ffffffff16565b50808273ffffffffffffffffffffffffffffffffffffffff168473ffffffffffffffffffffffffffffffffffffffff167fddf252ad1be2c89b69c2b068fc378daa952ba7f163c4a11628f55a4df523b3ef60405160405180910390a4505050565b613c2e8160008085815260200190815260200160002060000161344a90919063ffffffff16565b15613c9657613c3b6135e9565b73ffffffffffffffffffffffffffffffffffffffff168173ffffffffffffffffffffffffffffffffffffffff16837f2f8788117e7eff1d82e926ec794901d17c78024a50270940304540a733656f0d60405160405180910390a45b5050565b6000613ca98360000183614625565b60001c905092915050565b613cdb816000808581526020019081526020016000206000016146a890919063ffffffff16565b15613d4357613ce86135e9565b73ffffffffffffffffffffffffffffffffffffffff168173ffffffffffffffffffffffffffffffffffffffff16837ff6391f5c32d9c69d2a47ea670b442974b53935d1edc7fd64eb21e047a839171b60405160405180910390a45b5050565b613d4f612162565b613dc1576040517f08c379a00000000000000000000000000000000000000000000000000000000081526004018080602001828103825260148152602001807f5061757361626c653a206e6f742070617573656400000000000000000000000081525060200191505060405180910390fd5b6000600b60006101000a81548160ff0219169083151502179055507f5db9ee0a495bf2e6ff9c91a7834c1ba4fdd244a5e8aa4e537bd38aeae4b073aa613e056135e9565b604051808273ffffffffffffffffffffffffffffffffffffffff16815260200191505060405180910390a1565b6000613e3d8261227d565b9050613e4b81600084614567565b613e56600083613802565b60006009600084815260200190815260200160002080546001816001161561010002031660029004905014613ea557600960008381526020019081526020016000206000613ea49190614fef565b5b613ef682600260008473ffffffffffffffffffffffffffffffffffffffff1673ffffffffffffffffffffffffffffffffffffffff16815260200190815260200160002061460b90919063ffffffff16565b50613f0b8260036146d890919063ffffffff16565b5081600073ffffffffffffffffffffffffffffffffffffffff168273ffffffffffffffffffffffffffffffffffffffff167fddf252ad1be2c89b69c2b068fc378daa952ba7f163c4a11628f55a4df523b3ef60405160405180910390a45050565b600080600080613f7f86600001866146f2565b915091508160001c8160001c9350935050509250929050565b80600a9080519060200190613fae929190614f6f565b5050565b6000613fc5846000018460001b8461478b565b60001c90509392505050565b6000613fdf82600001614881565b9050919050565b613fee612162565b15614061576040517f08c379a00000000000000000000000000000000000000000000000000000000081526004018080602001828103825260108152602001807f5061757361626c653a207061757365640000000000000000000000000000000081525060200191505060405180910390fd5b6001600b60006101000a81548160ff0219169083151502179055507f62e78cea01bee320cd4e420270b5ea74000d11b0c9f74754ebdbfc544b05a2586140a56135e9565b604051808273ffffffffffffffffffffffffffffffffffffffff16815260200191505060405180910390a1565b60006140e18360000183614625565b60001c905092915050565b6000614114836000018373ffffffffffffffffffffffffffffffffffffffff1660001b614892565b905092915050565b6141278484846139c4565b614133848484846148b5565b614188576040517f08c379a000000000000000000000000000000000000000000000000000000000815260040180806020018281038252603281526020018061510b6032913960400191505060405180910390fd5b50505050565b606060008214156141d6576040518060400160405280600181526020017f300000000000000000000000000000000000000000000000000000000000000081525090506142d0565b600082905060005b60008214614200578080600101915050600a82816141f857fe5b0491506141de565b60608167ffffffffffffffff8111801561421957600080fd5b506040519080825280601f01601f19166020018201604052801561424c5781602001600182028036833780820191505090505b50905060006001830390508593505b600084146142c857600a848161426d57fe5b0660300160f81b8282806001900393508151811061428757fe5b60200101907effffffffffffffffffffffffffffffffffffffffffffffffffffffffffffff1916908160001a905350600a84816142c057fe5b04935061425b565b819450505050505b919050565b60006142e382600001614881565b9050919050565b600080828401905083811015614368576040517f08c379a000000000000000000000000000000000000000000000000000000000815260040180806020018281038252601b8152602001807f536166654d6174683a206164646974696f6e206f766572666c6f77000000000081525060200191505060405180910390fd5b8091505092915050565b60008083141561438557600090506143f2565b600082840290508284828161439657fe5b04146143ed576040517f08c379a00000000000000000000000000000000000000000000000000000000081526004018080602001828103825260218152602001806153086021913960400191505060405180910390fd5b809150505b92915050565b60006144048383614892565b61445d578260000182908060018154018082558091505060019003906000526020600020016000909190919091505582600001805490508360010160008481526020019081526020016000208190555060019050614462565b600090505b92915050565b600080846001016000858152602001908152602001600020549050600081141561450f5784600001604051806040016040528086815260200185815250908060018154018082558091505060019003906000526020600020906002020160009091909190915060008201518160000155602082015181600101555050846000018054905085600101600086815260200190815260200160002081905550600191505061453d565b8285600001600183038154811061452257fe5b90600052602060002090600202016001018190555060009150505b9392505050565b600080836001016000848152602001908152602001600020541415905092915050565b6145728383836134e3565b807f8c0bdd7bca83c4e0c810cbecf44bc544a9dc0b9f265664e31ce0ce85f07a052b6014600084815260200190815260200160002054601460008581526020019081526020016000205460006002604051808581526020018481526020018381526020018260028111156145e257fe5b815260200194505050505060405180910390a2505050565b600081600001805490509050919050565b600061461d836000018360001b614ace565b905092915050565b600081836000018054905011614686576040517f08c379a00000000000000000000000000000000000000000000000000000000081526004018080602001828103825260228152602001806150556022913960400191505060405180910390fd5b82600001828154811061469557fe5b9060005260206000200154905092915050565b60006146d0836000018373ffffffffffffffffffffffffffffffffffffffff1660001b614ace565b905092915050565b60006146ea836000018360001b614bb6565b905092915050565b60008082846000018054905011614754576040517f08c379a00000000000000000000000000000000000000000000000000000000081526004018080602001828103825260228152602001806152e66022913960400191505060405180910390fd5b600084600001848154811061476557fe5b906000526020600020906002020190508060000154816001015492509250509250929050565b60008084600101600085815260200190815260200160002054905060008114158390614852576040517f08c379a00000000000000000000000000000000000000000000000000000000081526004018080602001828103825283818151815260200191508051906020019080838360005b838110156148175780820151818401526020810190506147fc565b50505050905090810190601f1680156148445780820380516001836020036101000a031916815260200191505b509250505060405180910390fd5b5084600001600182038154811061486557fe5b9060005260206000209060020201600101549150509392505050565b600081600001805490509050919050565b600080836001016000848152602001908152602001600020541415905092915050565b60006148d68473ffffffffffffffffffffffffffffffffffffffff16614ccf565b6148e35760019050614ac6565b6060614a4d63150b7a0260e01b6148f86135e9565b888787604051602401808573ffffffffffffffffffffffffffffffffffffffff1681526020018473ffffffffffffffffffffffffffffffffffffffff16815260200183815260200180602001828103825283818151815260200191508051906020019080838360005b8381101561497c578082015181840152602081019050614961565b50505050905090810190601f1680156149a95780820380516001836020036101000a031916815260200191505b5095505050505050604051602081830303815290604052907bffffffffffffffffffffffffffffffffffffffffffffffffffffffff19166020820180517bffffffffffffffffffffffffffffffffffffffffffffffffffffffff838183161783525050505060405180606001604052806032815260200161510b603291398773ffffffffffffffffffffffffffffffffffffffff16614ce29092919063ffffffff16565b90506000818060200190516020811015614a6657600080fd5b8101908080519060200190929190505050905063150b7a0260e01b7bffffffffffffffffffffffffffffffffffffffffffffffffffffffff1916817bffffffffffffffffffffffffffffffffffffffffffffffffffffffff191614925050505b949350505050565b60008083600101600084815260200190815260200160002054905060008114614baa5760006001820390506000600186600001805490500390506000866000018281548110614b1957fe5b9060005260206000200154905080876000018481548110614b3657fe5b9060005260206000200181905550600183018760010160008381526020019081526020016000208190555086600001805480614b6e57fe5b60019003818190600052602060002001600090559055866001016000878152602001908152602001600020600090556001945050505050614bb0565b60009150505b92915050565b60008083600101600084815260200190815260200160002054905060008114614cc35760006001820390506000600186600001805490500390506000866000018281548110614c0157fe5b9060005260206000209060020201905080876000018481548110614c2157fe5b9060005260206000209060020201600082015481600001556001820154816001015590505060018301876001016000836000015481526020019081526020016000208190555086600001805480614c7457fe5b6001900381819060005260206000209060020201600080820160009055600182016000905550509055866001016000878152602001908152602001600020600090556001945050505050614cc9565b60009150505b92915050565b600080823b905060008111915050919050565b6060614cf18484600085614cfa565b90509392505050565b606082471015614d55576040517f08c379a00000000000000000000000000000000000000000000000000000000081526004018080602001828103825260268152602001806151d96026913960400191505060405180910390fd5b614d5e85614ccf565b614dd0576040517f08c379a000000000000000000000000000000000000000000000000000000000815260040180806020018281038252601d8152602001807f416464726573733a2063616c6c20746f206e6f6e2d636f6e747261637400000081525060200191505060405180910390fd5b600060608673ffffffffffffffffffffffffffffffffffffffff1685876040518082805190602001908083835b60208310614e205780518252602082019150602081019050602083039250614dfd565b6001836020036101000a03801982511681845116808217855250505050505090500191505060006040518083038185875af1925050503d8060008114614e82576040519150601f19603f3d011682016040523d82523d6000602084013e614e87565b606091505b5091509150614e97828286614ea3565b92505050949350505050565b60608315614eb357829050614f68565b600083511115614ec65782518084602001fd5b816040517f08c379a00000000000000000000000000000000000000000000000000000000081526004018080602001828103825283818151815260200191508051906020019080838360005b83811015614f2d578082015181840152602081019050614f12565b50505050905090810190601f168015614f5a5780820380516001836020036101000a031916815260200191505b509250505060405180910390fd5b9392505050565b828054600181600116156101000203166002900490600052602060002090601f016020900481019282601f10614fb057805160ff1916838001178555614fde565b82800160010185558215614fde579182015b82811115614fdd578251825591602001919060010190614fc2565b5b509050614feb9190615037565b5090565b50805460018160011615610100020316600290046000825580601f106150155750615034565b601f0160209004906000526020600020908101906150339190615037565b5b50565b5b80821115615050576000816000905550600101615038565b509056fe456e756d657261626c655365743a20696e646578206f7574206f6620626f756e64734552433732315061757361626c653a20746f6b656e207472616e73666572207768696c6520706175736564416363657373436f6e74726f6c3a2073656e646572206d75737420626520616e2061646d696e20746f206772616e74416464726573734c20756e61626c6520746f2073656e642076616c75652c20726563697069656e74206d617920686176652072657665727465644552433732313a207472616e7366657220746f206e6f6e20455243373231526563656976657220696d706c656d656e7465724552433732315072657365744d696e7465725061757365724175746f49643a206d75737420686176652070617573657220726f6c6520746f2070617573654552433732313a207472616e7366657220746f20746865207a65726f2061646472657373416464726573733a20756e61626c6520746f2073656e642076616c75652c20726563697069656e74206d61792068617665207265766572746564416464726573733a20696e73756666696369656e742062616c616e636520666f722063616c6c4552433732313a206f70657261746f7220717565727920666f72206e6f6e6578697374656e7420746f6b656e416363657373436f6e74726f6c3a2073656e646572206d75737420626520616e2061646d696e20746f207265766f6b654552433732313a20617070726f76652063616c6c6572206973206e6f74206f776e6572206e6f7220617070726f76656420666f7220616c6c4552433732313a2062616c616e636520717565727920666f7220746865207a65726f20616464726573734552433732313a206f776e657220717565727920666f72206e6f6e6578697374656e7420746f6b656e456e756d657261626c654d61703a20696e646578206f7574206f6620626f756e6473536166654d6174683a206d756c7469706c69636174696f6e206f766572666c6f774552433732313a20617070726f76656420717565727920666f72206e6f6e6578697374656e7420746f6b656e4552433732313a207472616e73666572206f6620746f6b656e2074686174206973206e6f74206f776e4552433732314d657461646174613a2055524920717565727920666f72206e6f6e6578697374656e7420746f6b656e4552433732313a20617070726f76616c20746f2063757272656e74206f776e657243616e6e6f742062756c6b20627579206d6f7265207468616e2074686520707265736574206c696d69742e4552433732313a207472616e736665722063616c6c6572206973206e6f74206f776e6572206e6f7220617070726f7665644552433732314275726e61626c653a2063616c6c6572206973206e6f74206f776e6572206e6f7220617070726f7665644552433732315072657365744d696e7465725061757365724175746f49643a206d75737420686176652070617573657220726f6c6520746f20756e7061757365416363657373436f6e74726f6c3a2063616e206f6e6c792072656e6f756e636520726f6c657320666f722073656c66a2646970667358221220d37aeafc6aa5ad3e0df2fe129ea0d30e93a5aa13ee7ef2ef8e93c29f1f671db564736f6c634300070300334552433732315061757361626c653a20746f6b656e207472616e73666572207768696c6520706175736564",
  "linkReferences": {},
  "deployedLinkReferences": {}
}